:020000040000FA
:040000004DEF00F0D0
:100018007480D8CF33F0E8CF34F0E0CF35F0FACFA2
:1000280036F0FBCF37F0E1CF38F0E2CF39F0D9CF57
:100038003AF0DACF3BF0F3CF3CF0F4CF3DF0F6CF17
:100048003EF0F7CF3FF0F8CF40F0F5CF41F0E5ECC8
:1000580008F041C0F5FF40C0F8FF3FC0F7FF3EC0C1
:10006800F6FF3DC0F4FF3CC0F3FF3BC0DAFF3AC0E7
:10007800D9FF39C0E2FF38C0E1FF37C0FBFF36C007
:10008800FAFF35C0E0FF34C0E8FF33C0D8FF7490F2
:060098001000E7EF11F07B
:100600000054455452495320504947210D0A001BBC
:100610005B324A1B5B481B5B334A0000000E010142
:10062000E86F020EE76F010EE06F000EE26F000E42
:10063000E16FE7C1E8F0E8C1E9F00001D890E837E0
:10064000E937D890E837E937D890E837E937100E1E
:10065000E825EA6F010EE921EB6F0101E15100018C
:10066000EA25D96E0101E2510001EB21DA6EDF507B
:10067000D8A43DEF03F03FEF03F043EF03F0010197
:10068000E06B54EF03F00101E14BE22BE2BF52EFCC
:1006900003F0E25109E1080EE15DD8A052EF03F04A
:1006A00054EF03F019EF03F0E051D8B45AEF03F020
:1006B0005CEF03F013EF04F0E7C1E3F1E8C1E4F10C
:1006C000B8EF03F0000E0101EA6F000EE96FE3C11D
:1006D000E8F0E4C1E9F00001D890E837E937D890B4
:1006E000E837E937D890E837E937080EE825EA6FA8
:1006F000010EE921EB6F0101E9510001EA25D96EF4
:100700000101EA510001EB21DA6EE3C1ECF0E4C132
:10071000EDF0D890EC37ED37D890EC37ED37D89036
:10072000EC37ED37100EEC25EE6F010EED21EF6F7B
:100730000101E9510001EE25E16E0101EA510001DC
:10074000EF21E26EDFCFE7FF0101E94BEA2BEABFC1
:10075000B3EF03F0EA5109E1080EE95DD8A0B3EF69
:1007600003F0B5EF03F067EF03F0E307D8A0E40769
:10077000FF0EE3250001E86FFF0E0101E4210001F7
:10078000E96FE9BFCFEF03F0E95107E1020EE85D41
:10079000D8B0CDEF03F0CFEF03F062EF03F0000E1F
:1007A0000101E66F000EE56F200EE525D96E010E02
:1007B000E621DA6EDF6AE54BE62BE6BFE9EF03F0F0
:1007C000E65109E1080EE55DD8A0E9EF03F0EBEF93
:1007D00003F0D4EF03F0524A532A55EC13F0010E04
:1007E0000001D06F0DEC15F052C0E2F053C0E3F001
:1007F000000E0001E56F0C0EE46F38EC11F0000103
:10080000E251E311D8A407EF04F009EF04F013EF6D
:1008100004F0040E63640FEF04F011EF04F013EF23
:1008200004F0020E635E0101E74BE82BE8BF22EF04
:1008300004F0E85109E1100EE75DD8A022EF04F0C2
:1008400024EF04F013EF03F0120081A02AEF04F06C
:100850002CEF04F054EF04F05B50D8A432EF04F016
:1008600034EF04F054EF04F0340E0001F26FF10E97
:10087000E82EFED7F22FFCD700D081A042EF04F083
:1008800044EF04F054EF04F0010E2BEC06F0E0EC22
:100890000BF00009D8B44FEF04F051EF04F054EF1F
:1008A00004F0000E2BEC06F081B059EF04F05CEF81
:1008B00004F0010E5DEF04F0000E5B6E81A263EFA9
:1008C00004F065EF04F084EF04F05A50D8A46BEF05
:1008D00004F06DEF04F084EF04F081A272EF04F0F5
:1008E00074EF04F084EF04F0000E2BEC06F0E0EC63
:1008F0000BF00009D8B47FEF04F081EF04F084EF2F
:1009000004F0010E2BEC06F081B289EF04F08CEFBD
:1009100004F0010E8DEF04F0000E5A6E81A493EFE7
:1009200004F095EF04F0BCEF04F05950D8A49BEF0D
:1009300004F09DEF04F0BCEF04F0340E0001F26F00
:10094000F10EE82EFED7F22FFCD700D081A4ABEF3A
:1009500004F0ADEF04F0BCEF04F05606D8A0570643
:10096000E0EC0BF00009D8B4B8EF04F0BAEF04F0F3
:10097000BCEF04F0564A572A81B4C1EF04F0C4EF2B
:1009800004F0010EC5EF04F0000E596E81A6CBEF06
:1009900004F0CDEF04F0F4EF04F05850D8A4D3EFF6
:1009A00004F0D5EF04F0F4EF04F0340E0001F26F20
:1009B000F10EE82EFED7F22FFCD700D081A6E3EF90
:1009C00004F0E5EF04F0F4EF04F0564A572AE0ECA7
:1009D0000BF00009D8B4EFEF04F0F1EF04F0F4EFFE
:1009E00004F05606D8A0570681B6F9EF04F0FCEFE4
:1009F00004F0010EFDEF04F0000E586E81B803EF15
:100A000005F005EF05F024EF05F06204D8A40BEF24
:100A100005F00DEF05F024EF05F0340E0001F26F44
:100A2000F10EE82EFED7F22FFCD700D081B81BEFD5
:100A300005F01DEF05F024EF05F0000E0001F16F49
:100A4000010EF06F7FEC12F081B829EF05F02CEF6A
:100A500005F0010E2DEF05F0000E626E1200000E83
:100A6000296E020E286E010E216E000E236E000EFE
:100A7000226E28C019F029C01AF0D89019361A36FB
:100A8000D89019361A36D89019361A36100E1924FD
:100A90001B6E010E1A201C6E22501B24D96E23508F
:100AA0001C20DA6EDF50D8A458EF05F05AEF05F09D
:100AB0005DEF05F0216A6DEF05F0224A232A23BE7F
:100AC0006BEF05F0235009E1080E225CD8A06BEF14
:100AD00005F06DEF05F039EF05F02150D8B473EF54
:100AE00005F075EF05F01AEF06F028C024F029C0D4
:100AF00025F0C6EF05F0000E2B6E000E2A6E24C006
:100B000019F025C01AF0D89019361A36D89019362F
:100B10001A36D89019361A36080E19241B6E010E93
:100B20001A201C6E2A501B24D96E2B501C20DA6E02
:100B300024C01DF025C01EF0D8901D361E36D8905A
:100B40001D361E36D8901D361E36100E1D241F6E03
:100B5000010E1E20206E2A501F24E16E2B502020F3
:100B6000E26EDFCFE7FF2A4A2B2A2BBEC1EF05F04A
:100B70002B5009E1080E2A5CD8A0C1EF05F0C3EFA5
:100B800005F07FEF05F02406D8A02506FF0E2424EB
:100B9000196EFF0E25201A6E1ABEDAEF05F01A50F4
:100BA00007E1020E195CD8B0D8EF05F0DAEF05F0D6
:100BB0007BEF05F0000E276E000E266E200E262419
:100BC000D96E010E2720DA6EDF6A264A272A27BE51
:100BD000F3EF05F0275009E1080E265CD8A0F3EFEB
:100BE00005F0F5EF05F0DEEF05F0524A532A91ECDF
:100BF00013F0010E016E3AEC15F052C013F053C021
:100C000014F0000E166E0C0E156E90EC11F01350D1
:100C10001410D8A40EEF06F010EF06F01AEF06F04D
:100C2000040E636416EF06F018EF06F01AEF06F0F4
:100C3000020E635E284A292A29BE28EF06F02950B1
:100C400009E1100E285CD8A028EF06F02AEF06F084
:100C500033EF05F012000001D16F0001FC05D8B49C
:100C600034EF06F036EF06F020EF07F0000EDC6FF1
:100C7000000EDB6F010EDB25D96F000EDC21DA6F71
:100C8000DABF4CEF06F0DA5109E1040ED95DD8A0C5
:100C90004CEF06F04EEF06F050EF06F082EF06F054
:100CA000DB51040DF350420FD925D96EDA6ADF50BB
:100CB000D26FD951040DF350420FDB25D96EDA6A99
:100CC000DB51040DF350420FD925E16EE26ADFCF0C
:100CD000E7FFD951040DF350420FDB25D96EDA6AD4
:100CE000D2C0DFFFD94BDA2BDABF80EF06F0DA5142
:100CF00009E1040ED95DD8A080EF06F082EF06F07E
:100D000050EF06F0DB4BDC2BDCBF90EF06F0DC5144
:100D100009E1030EDB5DD8A090EF06F092EF06F03C
:100D20003AEF06F0000EDE6F000EDD6F000ED66F9C
:100D3000000ED56FFC51D8B4A0EF06F0A2EF06F07C
:100D4000A8EF06F0000ED86F020ED76F01EF07F084
:100D5000000ED86F030ED76F01EF07F0D105D8A4AE
:100D6000B4EF06F0B6EF06F0DAEF06F0DD51040D51
:100D7000F350420FD525D96EDA6ADF50D36FDD51BB
:100D8000040DF350420FD725D96EDA6ADD51040DF8
:100D9000F350420FD525E16EE26ADFCFE7FFDD5168
:100DA000040DF350420FD725D96EDA6AD3C0DFFFA6
:100DB000FCEF06F0D551040DF350420FDD25D96E3E
:100DC000DA6ADF50D46FD751040DF350420FDD259E
:100DD000D96EDA6AD551040DF350420FDD25E16E6C
:100DE000E26ADFCFE7FFD751040DF350420FDD2554
:100DF000D96EDA6AD4C0DFFFD54BD62BD707D8A07F
:100E0000D807D751D55DD651800AD06FD851800A06
:100E1000D059D8A00EEF07F010EF07F0AEEF06F0B4
:100E2000DD4BDE2BDEBF1EEF07F0DE5109E1040EC5
:100E3000DD5DD8A01EEF07F020EF07F096EF06F07B
:100E40001200000E0001DD6F000EDC6F000EDF6F80
:100E5000000EDE6FDCC0D0F0DDC0D1F0D890D0370E
:100E6000D137D890D037D137D890D037D137000E7E
:100E7000D025D26F020ED121D36FDE51D225D96E8B
:100E8000DF51D321DA6EDCC0D4F0DDC0D5F0D890CC
:100E9000D437D537D890D437D537D890D437D5373D
:100EA000100ED425D66F010ED521D76FDE51D62571
:100EB000E16EDF51D721E26EE750D8A462EF07F070
:100EC00065EF07F0010E66EF07F0000EDF6EDE4BF8
:100ED000DF2BDFBF75EF07F0DF5109E1080EDE5DA4
:100EE000D8A075EF07F077EF07F02AEF07F0DC4B9B
:100EF000DD2BDDBF85EF07F0DD5109E1100EDC5D74
:100F0000D8A085EF07F087EF07F026EF07F0000E77
:100F1000E16F000EE06F000EE36F000EE26FE05134
:100F2000040DF350420FE225D96EDA6ADF50D8B4CF
:100F30009CEF07F09EEF07F0EFEF07F0E251562429
:100F4000D86FE3515720D96FE0515424DA6FE15143
:100F50005520DB6FD9BFAFEF07F0B1EF07F0EFEF30
:100F600007F0D9BFBFEF07F0D95107E1080ED85DF0
:100F7000D8B0BDEF07F0BFEF07F0EFEF07F0DBBF32
:100F8000C4EF07F0C6EF07F0EFEF07F0DBBFD4EFD9
:100F900007F0DB5107E1100EDA5DD8B0D2EF07F0B1
:100FA000D4EF07F0EFEF07F0DAC0D0F0DBC0D1F0FC
:100FB000D890D037D137D890D037D137D890D037D4
:100FC000D137000ED025D26F020ED121D36FD85168
:100FD000D225D96ED951D321DA6E010EDF6EE24BE4
:100FE000E32BE3BFFDEF07F0E35109E1040EE25DFF
:100FF000D8A0FDEF07F0FFEF07F08FEF07F0E04B11
:10100000E12BE1BF0DEF08F0E15109E1040EE05DD5
:10101000D8A00DEF08F00FEF08F08BEF07F01200EB
:10102000949C948EAC98B886000E0001D06F120E7E
:10103000D16F7A0ED26F000ED36FDEC0D4F0DFC056
:10104000D5F0E0C0D6F0E1C0D7F0E7EC0FF0D0C0AB
:10105000E4F0D1C0E5F0D2C0E6F0D3C0E7F0000183
:10106000E1BF43EF08F0E151E01109E1610EDE5DFF
:10107000090EDF59D8B03FEF08F043EF08F0E36BFB
:10108000E32B45EF08F00001E36BE347E347AC5087
:10109000E319FB0BE319AC6EACB851EF08F053EF5A
:1010A00008F07DEF08F0B8B658EF08F05AEF08F0F6
:1010B0007DEF08F0ACB45FEF08F061EF08F07DEF72
:1010C00008F0E4C0D0F0E5C0D1F0E6C0D2F0E7C04F
:1010D000D3F0400ED46F000ED56F000ED66F000E09
:1010E000D76FE7EC0FF0D0C0E4F0D1C0E5F0D2C08C
:1010F000E6F0D3C0E7F0D5EF08F0ACB882EF08F027
:1011000084EF08F0BBEF08F0ACB489EF08F08CEF87
:1011100008F0010E8DEF08F0000EE36FB8B693EF04
:1011200008F096EF08F0010E97EF08F0000EE31BB1
:10113000D8B49DEF08F09FEF08F0BBEF08F0E4C0D3
:10114000D0F0E5C0D1F0E6C0D2F0E7C0D3F0100E89
:10115000D46F000ED56F000ED66F000ED76FE7EC80
:101160000FF0D0C0E4F0D1C0E5F0D2C0E6F0D3C0BB
:10117000E7F0D5EF08F0E4C0D0F0E5C0D1F0E6C06C
:10118000D2F0E7C0D3F0040ED46F000ED56F000E7E
:10119000D66F000ED76FE7EC0FF0D0C0E4F0D1C0EF
:1011A000E5F0D2C0E6F0D3C0E7F0E5C0B0FFE4C0A0
:1011B000AFFFAB8EAC8AAB889E9A9D8A0001E2B1EC
:1011C00002D09F9A01D09F8A12009EAAEAEF08F0EF
:1011D000ECEF08F0B3EF09F0ABA2F1EF08F0F3EF9A
:1011E00008F0F6EF08F0AB980000AB8851EC16F071
:1011F000326EABB4FEEF08F000EF09F0B0EF09F08B
:101200009BEF09F05D50D8A408EF09F00AEF09F050
:101210000CEF09F0AEEF09F0080E3DEC16F0200ED1
:101220003DEC16F0080E3DEC16F05D06900E5D24C8
:10123000D96EDA6A010EDA22DF6AAEEF09F00A0E21
:101240003218D8A426EF09F028EF09F03BEF09F097
:101250005D50D8A42EEF09F030EF09F03BEF09F014
:101260000D0E5C18D8A437EF09F039EF09F03BEF09
:1012700009F0AEEF09F00A0E3DEC16F0900E5D2479
:10128000D96EDA6A010EDA22DF6A0001FA51FB1127
:10129000D8B44DEF09F04FEF09F062EF09F0900E6E
:1012A0002E6E010E2F6E5DC030F002D862EF09F095
:1012B0000500FA6EFA51FD6EFB51FE6EF850FF6E9E
:1012C000FA501200000E5D6E900E5D24D96EDA6A3F
:1012D000010EDA22DF6AAEEF09F00001F851F911D0
:1012E000D8B475EF09F077EF09F085EF09F002D86F
:1012F00085EF09F00500FA6EF851FD6EF951FE6EAA
:10130000F850FF6EFA50325012003F0E5D608BEFC6
:1013100009F08DEF09F0AEEF09F032503DEC16F018
:10132000900E5D24D96EDA6A010EDA2232C0DFFF38
:101330005D2AAEEF09F032500A0AD8B41FEF09F067
:10134000070AD8B41FEF09F0720AD8B402EF09F007
:10135000800AD8B4AEEF09F06DEF09F032C05CF04E
:10136000010EB4EF09F0000E1200000E0001EC6F48
:10137000000EED6F000EEE6F000EE96F000EEA6FCB
:10138000000EEB6FD2C0E9F0D3C0EAF0D0C0ECF0B1
:10139000D1C0EDF0FF0EEC15D66FFF0EED15D76F37
:1013A000010EEE15D86FFF0EE915D96FFF0EEA1585
:1013B000DA6F010EEB15DB6FD651D95DD751DA59D3
:1013C000D851DB59D8B0E7EF09F0E9EF09F04CEF5D
:1013D0000AF0FF0EE915D66FFF0EEA15D76F010E62
:1013E000EB15D86FD651D96FD751DA6FD851DB6F63
:1013F000DC6BD451D925DD6FD551DA21DE6F000EBB
:10140000DB21DF6F000EDC21E06FFF0EEC15E16FDA
:10141000FF0EED15E26F010EEE15E36FE151E46F83
:10142000E251E56FE351E66FE76BDD51E45DDE51BC
:10143000E559DF51E659E051E759D8B022EF0AF0FB
:1014400024EF0AF04CEF0AF0D451E927D551EA23F2
:10145000D451EC27D551ED23E907D8A0EA07E9C01C
:10146000D9FFEAC0DAFFDF50E86FEC07D8A0ED073C
:10147000ECC0D9FFEDC0DAFFE8C0DFFFD407D8A089
:10148000D507D451D511D8A448EF0AF04AEF0AF095
:101490002CEF0AF071EF0AF0D451D511D8B453EF04
:1014A0000AF055EF0AF071EF0AF0E9C0D9FFEAC07F
:1014B000DAFFDF50E86FE94BEA2BECC0D9FFEDC053
:1014C000DAFFE8C0DFFFEC4BED2BD407D8A0D5073F
:1014D000D451D511D8A46FEF0AF071EF0AF055EF8F
:1014E0000AF01200000E1D6E000E1E6E000E1F6E22
:1014F000000E1A6E000E1B6E000E1C6E03C01AF05A
:1015000004C01BF001C01DF002C01EF0FF0E1D1430
:10151000076EFF0E1E14086E010E1F14096EFF0EDB
:101520001A140A6EFF0E1B140B6E010E1C140C6EA7
:1015300007500A5C08500B5809500C58D8B0A3EF5C
:101540000AF0A5EF0AF008EF0BF0FF0E1A14076E71
:10155000FF0E1B14086E010E1C14096E07500A6E54
:1015600008500B6E09500C6E0D6A05500A240E6E61
:1015700006500B200F6E000E0C20106E000E0D207A
:10158000116EFF0E1D14126EFF0E1E14136E010E4F
:101590001F14146E1250156E1350166E1450176EE1
:1015A000186A0E50155C0F501658105017581150ED
:1015B0001858D8B0DEEF0AF0E0EF0AF008EF0BF0B1
:1015C00005501A2606501B2205501D2606501E22C5
:1015D0001A06D8A01B061AC0D9FF1BC0DAFFDF50BD
:1015E000196E1D06D8A01E061DC0D9FF1EC0DAFF49
:1015F00019C0DFFF0506D8A0060605500610D8A4BE
:1016000004EF0BF006EF0BF0E8EF0AF02DEF0BF014
:1016100005500610D8B40FEF0BF011EF0BF02DEFC3
:101620000BF01AC0D9FF1BC0DAFFDF50196E1A4A3F
:101630001B2A1DC0D9FF1EC0DAFF19C0DFFF1D4ADB
:101640001E2A0506D8A0060605500610D8A42BEFC2
:101650000BF02DEF0BF011EF0BF01200000E00015C
:10166000E06F000EDF6FD96B000EDC6F000EDB6FDA
:10167000DFC0D5F0E0C0D6F0D890D537D637D890B7
:10168000D537D637D890D537D637000ED525D76F72
:10169000020ED621D86FDB51D725D96EDC51D82167
:1016A000DA6EDF50D8B457EF0BF059EF0BF068EF5C
:1016B0000BF0DBC0D5F0010ED66FD52B62EF0BF02F
:1016C000D890D637D52F60EF0BF00001D651D91343
:1016D000DB4BDC2BDCBF76EF0BF0DC5109E1080EB5
:1016E000DB5DD8A076EF0BF078EF0BF038EF0BF066
:1016F000DA6B000EDE6F000EDD6FDFC0D5F0E0C0EC
:10170000D6F0D890D537D637D890D537D637D890A9
:10171000D537D637400ED525D76F020ED621D86FD4
:10172000DD51D725D96EDE51D821DA6EDF50D8B41D
:101730009CEF0BF09EEF0BF0ADEF0BF0DDC0D5F0A2
:10174000010ED66FD52BA7EF0BF0D890D637D52F3B
:10175000A5EF0BF00001D651DA13DD4BDE2BDEBF17
:10176000BBEF0BF0DE5109E1080EDD5DD8A0BBEF49
:101770000BF0BDEF0BF07DEF0BF08C90DF29DFEC71
:1017800014F00001DA51DFEC14F00001DF29DFEC86
:1017900014F00001D951DFEC14F08C800001DF4B14
:1017A000E02BE0BFDDEF0BF0E05109E1080EDF5D5B
:1017B000D8A0DDEF0BF0DFEF0BF033EF0BF01200F2
:1017C000000E0001D96F000ED86F000EDB6F000E07
:1017D000DA6FD851040DF350420FDA25D96EDA6A68
:1017E000DF50D8B4F6EF0BF0F8EF0BF05BEF0CF036
:1017F000DA515624D46FDB515720D56FD851542479
:10180000D66FD9515520D76FD5BF09EF0CF00BEF2C
:101810000CF035EF0CF0D5BF19EF0CF0D55107E106
:10182000080ED45DD8B017EF0CF019EF0CF035EFBF
:101830000CF0D7BF25EF0CF0D75109E1020ED65DB1
:10184000D8A025EF0CF027EF0CF035EF0CF0D7BF48
:1018500033EF0CF0D75109E1100ED65DD8A033EF6D
:101860000CF035EF0CF038EF0CF0010E7CEF0CF0C3
:10187000D6C0D0F0D7C0D1F0D890D037D137D890DB
:10188000D037D137D890D037D137100ED025D26F7E
:10189000010ED121D36FD451D225D96ED551D32188
:1018A000DA6EDF50D8B457EF0CF059EF0CF05BEF65
:1018B0000CF035EF0CF0DA4BDB2BDBBF69EF0CF0F3
:1018C000DB5109E1040EDA5DD8A069EF0CF06BEF93
:1018D0000CF0E9EF0BF0D84BD92BD9BF79EF0CF016
:1018E000D95109E1040ED85DD8A079EF0CF07BEF57
:1018F0000CF0E5EF0BF0000E1200000E0A6E000E69
:10190000096E000E0C6E000E0B6E0950040DF350A4
:10191000420F0B24D96EDA6ADF50D8B492EF0CF084
:1019200094EF0CF0F7EF0CF00B505624056E0C50B2
:101930005720066E09505424076E0A505520086E31
:1019400006BEA5EF0CF0A7EF0CF0D1EF0CF006BE31
:10195000B5EF0CF0065007E1080E055CD8B0B3EF08
:101960000CF0B5EF0CF0D1EF0CF008BEC1EF0CF0AD
:10197000085009E1020E075CD8A0C1EF0CF0C3EFDC
:101980000CF0D1EF0CF008BECFEF0CF0085009E1DD
:10199000100E075CD8A0CFEF0CF0D1EF0CF0D4EF15
:1019A0000CF0010E18EF0DF007C001F008C002F0B6
:1019B000D89001360236D89001360236D8900136DA
:1019C0000236100E0124036E010E0220046E055033
:1019D0000324D96E06500420DA6EDF50D8B4F3EF3A
:1019E0000CF0F5EF0CF0F7EF0CF0D1EF0CF00B4A28
:1019F0000C2A0CBE05EF0DF00C5009E1040E0B5C37
:101A0000D8A005EF0DF007EF0DF085EF0CF0094AB7
:101A10000A2A0ABE15EF0DF00A5009E1040E095C0E
:101A2000D8A015EF0DF017EF0DF081EF0CF0000EC0
:101A3000120006EC14F0DCC0E2F0DDC0E3F0000EB2
:101A40000001E56F070EE46F38EC11F0E2C0E8F03A
:101A5000E3C0E9F00001E851E911D8A432EF0DF03C
:101A600034EF0DF03DEF0DF0640ED06FD16B36EC1E
:101A700012F00001FC6BA9EF0DF0E805E911D8A404
:101A800044EF0DF046EF0DF050EF0DF0C00ED06FAB
:101A9000D16B36EC12F0010E0001FC6FA9EF0DF0D6
:101AA000020EE819E911D8A458EF0DF05AEF0DF025
:101AB00064EF0DF0B00ED06FD16B36EC12F0020E69
:101AC0000001FC6FA9EF0DF0030EE819E911D8A48D
:101AD0006CEF0DF06EEF0DF078EF0DF0A00ED06F03
:101AE000D16B36EC12F0030E0001FC6FA9EF0DF084
:101AF000040EE819E911D8A480EF0DF082EF0DF083
:101B00008CEF0DF0900ED06FD16B36EC12F0040E0E
:101B10000001FC6FA9EF0DF0050EE819E911D8A43A
:101B200094EF0DF096EF0DF0A0EF0DF0800ED06F5A
:101B3000D16B36EC12F0050E0001FC6FA9EF0DF031
:101B4000D00ED06F010ED16F36EC12F0060E0001F0
:101B5000FC6F000E576E020E566E000E556E020E92
:101B6000546E120074EC14F00DC013F00EC014F09B
:101B7000000E166E070E156E90EC11F013C019F0E2
:101B800014C01AF019501A10D8A4C9EF0DF0CBEFF9
:101B90000DF0D4EF0DF0640E016E026AC7EC12F086
:101BA0000001FC6B40EF0EF019041A10D8A4DBEF13
:101BB0000DF0DDEF0DF0E7EF0DF0C00E016E026AE3
:101BC000C7EC12F0010E0001FC6F40EF0EF0020EA8
:101BD00019181A10D8A4EFEF0DF0F1EF0DF0FBEF8C
:101BE0000DF0B00E016E026AC7EC12F0020E000199
:101BF000FC6F40EF0EF0030E19181A10D8A403EF73
:101C00000EF005EF0EF00FEF0EF0A00E016E026A5F
:101C1000C7EC12F0030E0001FC6F40EF0EF0040E53
:101C200019181A10D8A417EF0EF019EF0EF023EFC1
:101C30000EF0900E016E026AC7EC12F0040E000165
:101C4000FC6F40EF0EF0050E19181A10D8A42BEFF8
:101C50000EF02DEF0EF037EF0EF0800E016E026ADF
:101C6000C7EC12F0050E0001FC6F40EF0EF0D00E35
:101C7000016E010E026EC7EC12F0060E0001FC6F41
:101C8000000E576E020E566E000E556E020E546E0A
:101C90001200700ED3120F0EC16E93809382938444
:101CA00093869388959E959C959A8C6A32EC16F053
:101CB000CCEC13F0D08EF28EF28C800E0001DE6F31
:101CC000250EDF6F000EE06F000EE16F000EE26F79
:101CD00010EC08F01C0E0001FA6F2C0EFB6FC40E06
:101CE000F86F2C0EF96F0F0ED06F0DEC15F0010E82
:101CF0000001D06F0DEC15F0010E0001F56F000E24
:101D0000D56FF551B1EC15F00001F52B080EF56516
:101D10008CEF0EF08EEF0EF07FEF0EF0000ED16F15
:101D2000010ED06F24EC16F06DEC10F019EC0DF0F4
:101D300021EC07F02EEC0BF006EC14F0DCC0E2F026
:101D4000DDC0E3F0000E0001E56F050EE46F38EC36
:101D500011F0020E0001E225F66F000EE321F76F8D
:101D60000001F46BC5EF0EF025EC04F021EC07F058
:101D70002EEC0BF01A0E0001F36FF80EE82EFED7D2
:101D8000F32FFCD700000001F42B6350F45DD8A0C2
:101D9000CCEF0EF0CEEF0EF0B4EF0EF08DEC15F0B0
:101DA000B0EF0EF04DEF00F0000E0001D96F000E05
:101DB000D86F000EDB6F000EDA6FD851040DF350B0
:101DC000420FDA25D96EDA6ADF50D8B4EAEF0EF0A6
:101DD000ECEF0EF03DEF0FF0DA515624D46FDB51EB
:101DE0005720D56FD8515424D66FD9515520D76F6D
:101DF000D5BFFDEF0EF0FFEF0EF03DEF0FF0D5BFBA
:101E00000DEF0FF0D55107E1080ED45DD8B00BEF00
:101E10000FF00DEF0FF03DEF0FF0D7BF12EF0FF007
:101E200014EF0FF03DEF0FF0D7BF22EF0FF0D751B7
:101E300007E1100ED65DD8B020EF0FF022EF0FF0C3
:101E40003DEF0FF0D6C0D0F0D7C0D1F0D890D0374A
:101E5000D137D890D037D137D890D037D137100E6E
:101E6000D025D26F010ED121D36FD451D225D96E96
:101E7000D551D321DA6E010EDF6EDA4BDB2BDBBFDF
:101E80004BEF0FF0DB5109E1040EDA5DD8A04BEF08
:101E90000FF04DEF0FF0DDEF0EF0D84BD92BD9BF7F
:101EA0005BEF0FF0D95109E1040ED85DD8A05BEFCC
:101EB0000FF05DEF0FF0D9EF0EF01200000E0A6E7A
:101EC000000E096E000E0C6E000E0B6E0950040D14
:101ED000F350420F0B24D96EDA6ADF50D8B473EF97
:101EE0000FF075EF0FF0C6EF0FF00B505624056E94
:101EF0000C505720066E09505424076E0A50552086
:101F0000086E06BE86EF0FF088EF0FF0C6EF0FF0F9
:101F100006BE96EF0FF0065007E1080E055CD8B03C
:101F200094EF0FF096EF0FF0C6EF0FF008BE9BEFA7
:101F30000FF09DEF0FF0C6EF0FF008BEABEF0FF004
:101F4000085007E1100E075CD8B0A9EF0FF0ABEF17
:101F50000FF0C6EF0FF007C001F008C002F0D890F4
:101F600001360236D89001360236D8900136023654
:101F7000100E0124036E010E0220046E055003248E
:101F8000D96E06500420DA6E010EDF6E0B4A0C2A61
:101F90000CBED4EF0FF00C5009E1040E0B5CD8A07E
:101FA000D4EF0FF0D6EF0FF066EF0FF0094A0A2AD0
:101FB0000ABEE4EF0FF00A5009E1040E095CD8A054
:101FC000E4EF0FF0E6EF0FF062EF0FF01200000108
:101FD000D96BD7BFF0EF0FF0EEEF0FF0FAEF0FF085
:101FE000D71FD61FD51FD46D000ED523D623D723D8
:101FF000010ED96FD3BF01EF10F0FFEF0FF00BEF21
:1020000010F0D31FD21FD11FD06D000ED123D223C9
:10201000D323010ED91B000EDA6F000EDB6F000E0A
:10202000DC6F000EDD6FD451D511D611D711D8B4A5
:102030001CEF10F01EEF10F054EF10F0010ED86FEF
:1020400028EF10F0D890D437D537D637D737D82BDC
:10205000D7AF2DEF10F02FEF10F022EF10F0D89047
:10206000DA37DB37DC37DD37D451D05DD551D15984
:10207000D651D259D751D359D8A041EF10F043EFE0
:1020800010F04CEF10F0D451D05FD551D15BD65148
:10209000D25BD751D35BDA81D890D733D633D533DF
:1020A000D433D82F2FEF10F0D951D8B45AEF10F005
:1020B0005CEF10F064EF10F0DD1FDC1FDB1FDA6D4A
:1020C000000EDB23DC23DD23DAC0D0F0DBC0D1F04F
:1020D000DCC0D2F0DDC0D3F01200000E536E000E53
:1020E000526E100E636E000E0001DB6F000EDA6F91
:1020F000000EDD6F000EDC6FDAC0D6F0DBC0D7F06B
:10210000D890D637D737D890D637D737D890D63754
:10211000D737100ED625D86F010ED721D96FDC51D5
:10212000D825D96EDD51D921DA6EDF6ADAC0D6F052
:10213000DBC0D7F0D890D637D737D890D637D73737
:10214000D890D637D737000ED625D86F020ED721B4
:10215000D96FDC51D825D96EDD51D921DA6EDF6A0D
:10216000DC4BDD2BDDBFBEEF10F0DD5109E1080EC9
:10217000DC5DD8A0BEEF10F0C0EF10F07CEF10F0E7
:10218000DA4BDB2BDBBFCEEF10F0DB5109E1100E99
:10219000DA5DD8A0CEEF10F0D0EF10F078EF10F0AD
:1021A00055EC13F01200000E536E000E526E100E1E
:1021B000636E000E0C6E000E0B6E000E0E6E000EA7
:1021C0000D6E0BC007F00CC008F0D890073608362B
:1021D000D89007360836D89007360836100E0724F0
:1021E000096E010E08200A6E0D500924D96E0E509A
:1021F0000A20DA6EDF6A0BC007F00CC008F0D89036
:1022000007360836D89007360836D890073608368D
:10221000000E0724096E020E08200A6E0D500924D4
:10222000D96E0E500A20DA6EDF6A0D4A0E2A0EBEF3
:1022300023EF11F00E5009E1080E0D5CD8A023EF3A
:1022400011F025EF11F0E1EF10F00B4A0C2A0CBE53
:1022500033EF11F00C5009E1100E0B5CD8A033EFF6
:1022600011F035EF11F0DDEF10F091EC13F01200EA
:102270000001E76BE3BF41EF11F03FEF11F047EFD3
:1022800011F0E26DE31FD8B0E32B010EE76FE5BF5D
:102290004EEF11F04CEF11F052EF11F0E46DE51F2D
:1022A000D8B0E52BE451E511D8B459EF11F05BEF4C
:1022B00011F07FEF11F0010EE66F63EF11F0D8908F
:1022C000E437E537E62BE5AF68EF11F06AEF11F080
:1022D0005FEF11F0E451E25DE551E359D8A073EFEF
:1022E00011F075EF11F079EF11F0E451E25FE55173
:1022F000E35BD890E533E433E62F6AEF11F0E75162
:10230000D8B485EF11F087EF11F08BEF11F0E26D8B
:10231000E31FD8B0E32BE2C0E2F0E3C0E3F0120029
:10232000186A14BE98EF11F096EF11F09EEF11F0BD
:10233000136C141ED8B0142A010E186E16BEA5EF29
:1023400011F0A3EF11F0A9EF11F0156C161ED8B023
:10235000162A15501610D8B4B0EF11F0B2EF11F0E4
:10236000D6EF11F0010E176EBAEF11F0D8901536B6
:102370001636172A16AEBFEF11F0C1EF11F0B6EF07
:1023800011F01550135C16501458D8A0CAEF11F074
:10239000CCEF11F0D0EF11F01550135E1650145A17
:1023A000D89016321532172EC1EF11F01850D8B44C
:1023B000DCEF11F0DEEF11F0E2EF11F0136C141E00
:1023C000D8B0142A13C013F014C014F01200B40EC5
:1023D000F66E2C0EF76E000EF86E01EED0F010EED9
:1023E00010F00900F5CFEEFFE550E150FAE1CA0E1A
:1023F000F66E2A0EF76E000EF86E00EE80F010EE0C
:1024000050F00900F5CFEEFFE550E150FAE1900EF3
:10241000F66E2C0EF76E000EF86E00EE62F010EE07
:1024200012F00900F5CFEEFFE550E150FAE102EEBF
:1024300000F0800EEE6AE806FDE101EE00F0D00E3D
:10244000EE6AE806FDE100EEF6F0070EEE6AE80639
:10245000FDE100EE42F0200EEE6AE806FDE1749028
:102460007492000EF86E000149EF0EF0000E0001AC
:10247000D76F000ED66F000ED96F000ED86FD6C082
:10248000D2F0D7C0D3F0D890D237D337D890D23744
:10249000D337D251D025D46FD351D121D56FD85154
:1024A000D425D96ED951D521DA6ED651040DF35009
:1024B000420FD825E16EE26ADFCFE7FFD84BD92B78
:1024C000D9BF6CEF12F0D95109E1040ED85DD8A044
:1024D0006CEF12F06EEF12F03FEF12F0D64BD72BED
:1024E000D7BF7CEF12F0D75109E1040ED65DD8A01A
:1024F0007CEF12F07EEF12F03BEF12F01200100EA4
:102500000001D06F010ED16F180ED26F010ED36F84
:10251000000ED56F780ED46FB5EC09F0880E00016F
:10252000D06F010ED16F000ED36F010ED26F000E6F
:10253000D56F080ED46FD5EC15F0880E0001F62586
:10254000D96E010EF721DA6EDF6AE0EC0BF00009BC
:10255000D8B4ADEF12F0AFEF12F0C6EF12F05406A0
:10256000D8A05506D4EC0EF00EEC03F019EC0DF0EB
:10257000E0EC0BF00009D8B4C0EF12F0C2EF12F09B
:10258000C6EF12F06DEC10F019EC0DF01200000E19
:10259000086E000E076E000E0A6E000E096E07C070
:1025A00003F008C004F0D89003360436D890033600
:1025B000043603500124056E04500220066E0950B3
:1025C0000524D96E0A500620DA6E0750040DF35028
:1025D000420F0924E16EE26ADFCFE7FF094A0A2AC7
:1025E0000ABEFCEF12F00A5009E1040E095CD8A003
:1025F000FCEF12F0FEEF12F0CFEF12F0074A082ABC
:1026000008BE0CEF13F0085009E1040E075CD8A0D7
:102610000CEF13F00EEF13F0CBEF12F01200100ED0
:10262000016E010E026E180E036E010E046E000E96
:10263000066E780E056E72EC0AF0880E016E010EC1
:10264000026E000E046E010E036E000E066E080E82
:10265000056EF2EC15F0880E0001F625D96E010E1C
:10266000F721DA6EDF6A7DEC0CF00009D8B43BEF9D
:1026700013F03DEF13F054EF13F05406D8A05506B5
:102680005EEC0FF02FEC05F0B2EC0DF07DEC0CF0F1
:102690000009D8B44EEF13F050EF13F054EF13F0DD
:1026A000D3EC10F0B2EC0DF0120052C0D0F053C0D9
:1026B000D1F0000E0001D36F000ED26F000ED56F67
:1026C000800ED46FD451D05DD551D159D8A06BEFC5
:1026D00013F06DEF13F07BEF13F0D451D05FD551B1
:1026E000D15B100ED225D96E010ED321DA6E010E08
:1026F000DF6E82EF13F0100ED225D96E010ED321BA
:10270000DA6EDF6AD24BD32BD890D533D433D45181
:10271000D511D8A48EEF13F090EF13F062EF13F001
:10272000120052C001F053C002F0000E046E000E01
:10273000036E000E066E800E056E0550015C06509D
:102740000258D8A0A6EF13F0A8EF13F0B6EF13F0DD
:102750000550015E0650025A100E0324D96E010E78
:102760000420DA6E010EDF6EBDEF13F0100E0324AD
:10277000D96E010E0420DA6EDF6A034A042AD8906B
:102780000632053205500610D8A4C9EF13F0CBEF7E
:1027900013F09DEF13F01200000E0001D56F0F0E25
:1027A000B1EC15F0070E0001D56F0B0EB1EC15F072
:1027B000000E0001D56F090EB1EC15F0020E0001FC
:1027C000D56F0A0EB1EC15F0010E0001D56F0C0E9D
:1027D000B1EC15F0000E0001DA6F010ED96F000E9A
:1027E000D56FD951B1EC15F00001D94BDA2BDABF16
:1027F00003EF14F0DA5109E1090ED95DD8A003EF17
:1028000014F005EF14F0EFEF13F012005EC0D0F0FB
:102810005FC0D1F060C0D2F061C0D3F02D0E0001D6
:10282000D46F7F0ED56F950ED66F4C0ED76F3EECE2
:1028300014F0010E0001D0255E6E000ED1215F6EF6
:10284000000ED221606E000ED321616E5EC0DEF0FC
:102850005FC0DFF060C0E0F061C0E1F0120E36EF63
:1028600014F0D890E133E033DF33DE33E82E31EF7C
:1028700014F0DEC0DCF0DFC0DDF01200000E00015D
:10288000D86F000ED96F000EDA6F000EDB6FD0A18B
:102890004CEF14F04EEF14F056EF14F0D451D8274B
:1028A000D551D923D651DA23D751DB23D890D43749
:1028B000D537D637D737D890D333D233D133D03377
:1028C000D051D111D211D311D8A469EF14F06BEF0C
:1028D00014F047EF14F0D8C0D0F0D9C0D1F0DAC06E
:1028E000D2F0DBC0D3F012005EC001F05FC002F096
:1028F00060C003F061C004F02D0E056E7F0E066E01
:10290000950E076E4C0E086EAAEC14F0010E012411
:102910005E6E000E02205F6E000E0320606E000EE1
:102920000420616E5EC00FF05FC010F060C011F057
:1029300061C012F0120EA2EF14F0D89012321132D0
:1029400010320F32E82E9DEF14F00FC00DF010C0C2
:102950000EF01200000E096E000E0A6E000E0B6ED5
:10296000000E0C6E01A0B7EF14F0B9EF14F0C1EF38
:1029700014F00550092606500A2207500B22085071
:102980000C22D8900536063607360836D890043221
:102990000332023201320150021003100410D8A495
:1029A000D4EF14F0D6EF14F0B2EF14F009C001F038
:1029B0000AC002F00BC003F00CC004F012000001CA
:1029C000D26F000E0001D46F070ED36F8B96D3C069
:1029D000D0F0D2C0D1F0D02BF0EF14F0D890D1339A
:1029E000D02FEEEF14F0010E0001D117D13BD147EB
:1029F0008B50D119DF0BD1198B6E8B860000000034
:102A00008B960001D307D8A0D407D4BF0CEF15F0E4
:102A10000AEF15F0E6EF14F01200000E0001D36F7C
:102A2000000ED26F28EF15F0ACA219EF15F01BEFD6
:102A300015F014EF15F00001D051D225D16FD1C09F
:102A4000F6FF060EF76E0800F5CFADFFD24BD32B85
:102A5000D051D225D16FD1C0F6FF060EF76E080017
:102A6000F5500009D8A437EF15F039EF15F014EF41
:102A700015F01200000E046E000E036E53EF15F0F9
:102A8000ACA245EF15F047EF15F040EF15F00150FF
:102A90000324026E02C0F6FF060EF76E0800F5CFA3
:102AA000ADFF034A042A01500324026E02C0F6FF60
:102AB000060EF76E0800F5500009D8A462EF15F075
:102AC00064EF15F040EF15F0120001000000010165
:102AD00001000000000000000000010100000001F2
:102AE00001000000000000000000000101000101E1
:102AF00000000000000000000000000100000101D3
:102B000001000000000000000000000101000001C1
:102B100001000000000000000000544A552AE0ECCB
:102B20000BF00009D8B497EF15F099EF15F0B0EF5E
:102B300015F05406D8A05506D4EC0EF00EEC03F0B8
:102B400019EC0DF0E0EC0BF00009D8B4AAEF15F089
:102B5000ACEF15F0B0EF15F06DEC10F019EC0DF0D6
:102B600012000001D66F8C90000E0001D86F000E8D
:102B7000D76FD651DFEC14F00001D551DFEC14F023
:102B80000001D74BD82BD8BFCFEF15F0D85109E1B2
:102B9000020ED75DD8A0CFEF15F0D1EF15F0B9EF49
:102BA00015F08C80000000001200D0C0D6F0D1C01B
:102BB000D7F0E3EF15F0D6C0D9FFD7C0DAFFD2C007
:102BC000DFFFD64BD72B0001D407D8A0D507D429D7
:102BD00006E1D529D8A4EFEF15F0F1EF15F0DBEF02
:102BE00015F0120001C007F002C008F000EF16F067
:102BF00007C0D9FF08C0DAFF03C0DFFF074A082A71
:102C00000506D8A00606052806E10628D8A40BEF7D
:102C100016F00DEF16F0F8EF15F012002EC0D9FFE8
:102C20002FC0DAFF540EDE18D8A419EF16F01BEFF0
:102C300016F023EF16F0000E2D6E010E2C6E0FEC29
:102C400013F0200E8C261200FF0E0001D025D26F4B
:102C5000FF0ED121D36FD2C05EF0D3C05FF0606AA7
:102C6000616A1200720ED36E0F0EC16E8C808B9A49
:102C70008B969590949A94961200016EACA243EFB5
:102C800016F045EF16F03EEF16F001C0ADFF120052
:102C9000010E000000000101010100000000000021
:102CA00000009EAA56EF16F058EF16F051EF16F0FE
:102CB000AE50120000000100010101000000000000
:062CC000000000001200FC
:020000040020DA
:08000000FFFFFFFFFFFFFFFF00
:020000040030CA
:0E000000FF081B1EFF8181FF0FC00FE00F40A5
:00000001FF
