:020000040000FA
:0400000027EF01F0F5
:100018007C80D8CF5BF0E8CF5CF0E0CF5DF0FACF22
:100028005EF0FBCF5FF0E1CF60F0E2CF61F0D9CFB7
:1000380062F0DACF63F0F3CF64F0F4CF65F0F6CF77
:1000480066F0F7CF67F0F8CF68F0F5CF69F0E6EC27
:100058000DF00009D8B433EF00F035EF00F037EFBA
:1000680000F007EF01F0F2A43CEF00F03EEF00F0E3
:1000780007EF01F0F2940001DF51D8A446EF00F039
:1000880048EF00F059EF00F0D8906A34F66E6B3400
:10009800F76E310EF6267F0EF7220900F5CF84F0B1
:1000A8000A00F5CF85F066EF00F0D8906A34D96E73
:1000B8006B34DA6E800ED926020EDA22DECF84F097
:1000C800DDCF85F0842906E18529D8A46EEF00F0FC
:1000D80070EF00F081EF00F06BBE7BEF00F06B502B
:1000E80008E16A04D8A07BEF00F07DEF00F081EF13
:1000F80000F0000E6B6E000E6A6EDF51D8A487EF19
:1001080000F089EF00F09CEF00F0D8906A34F66EAA
:100118006B34F76E310EF6267F0EF7220900F5CF05
:100128000EF00A00F5CF0FF014EC16F0ABEF00F06C
:10013800D8906A34D96E6B34DA6E800ED926020EE6
:10014800DA22DECF0EF0DDCF0FF014EC16F000014E
:10015800DF51D8A4B2EF00F0B4EF00F0C5EF00F023
:10016800D8906A34F66E6B34F76E690EF6267E0EFA
:10017800F7220900F5CF86F00A00F5CF87F0D2EF15
:1001880000F0D8906A34D96E6B34DA6E800ED926B6
:10019800030EDA22DECF86F0DDCF87F086C001F0CD
:1001A80087C002F0000E02BEFF0E036E046EE80E5A
:1001B800056E030E066E000E076E000E086E4FECFD
:1001C8001EF0080EEDEF00F0D89004320332023230
:1001D8000132E82EE8EF00F001C080F002C081F0A3
:1001E80003C082F004C083F0000180510008886FCA
:1001F8008151D8A0E82A0008896F8951D76E88C034
:10020800D6FF6A4A6B2A69C0F5FF68C0F8FF67C065
:10021800F7FF66C0F6FF65C0F4FF64C0F3FF63C074
:10022800DAFF62C0D9FF61C0E2FF60C0E1FF5FC0D2
:10023800FBFF5EC0FAFF5DC0E0FF5CC0E8FF5BC08B
:10024800D8FF7C9010008DEF16F00001926F00012E
:10025800E305D8B432EF01F034EF01F0D2EF02F049
:10026800000E9D6F000E9C6F010E9C259A6F000E6C
:100278009D219B6F9BBF4AEF01F09B5109E1040E42
:100288009A5DD8A04AEF01F04CEF01F04EEF01F073
:10029800BCEF01F09CC08AF09DC08BF0D8908A37E3
:1002A8008B37D8908A378B37200E8A258C6F010EB2
:1002B8008B218D6F9A518C25D96E9B518D21DA6EC9
:1002C800DF50936F9AC08AF09BC08BF0D8908A3722
:1002D8008B37D8908A378B37200E8A258C6F010E82
:1002E8008B218D6F9C518C25D96E9D518D21DA6E95
:1002F8009CC08EF09DC08FF0D8908E378F37D890E5
:100308008E378F37200E8E25906F010E8F21916FBB
:100318009A519025E16E9B519121E26EDFCFE7FF64
:100328009AC08AF09BC08BF0D8908A378B37D890C8
:100338008A378B37200E8A258C6F010E8B218D6FA3
:100348009C518C25D96E9D518D21DA6E93C0DFFFAB
:100358009A4B9B2B9BBFBAEF01F09B5109E1040E0E
:100368009A5DD8A0BAEF01F0BCEF01F04EEF01F0B2
:100378009C4B9D2B9DBFCAEF01F09D5109E1030ED7
:100388009C5DD8A0CAEF01F0CCEF01F038EF01F086
:10039800000E9F6F000E9E6F000E976F000E966FF7
:1003A800E351D8B4DAEF01F0DCEF01F0E2EF01F04D
:1003B800000E996F020E986FB3EF02F0000E996F5E
:1003C800030E986FB3EF02F09205D8A4EEEF01F098
:1003D800F0EF01F050EF02F09EC08AF09FC08BF062
:1003E800D8908A378B37D8908A378B37200E8A2552
:1003F8008C6F010E8B218D6F96518C25D96E97517C
:100408008D21DA6EDF50946F9EC08AF09FC08BF00A
:10041800D8908A378B37D8908A378B37200E8A2521
:100428008C6F010E8B218D6F98518C25D96E995147
:100438008D21DA6E9EC08EF09FC08FF0D8908E37D7
:100448008F37D8908E378F37200E8E25906F010EFC
:100458008F21916F96519025E16E97519121E26E0F
:10046800DFCFE7FF9EC08AF09FC08BF0D8908A3715
:100478008B37D8908A378B37200E8A258C6F010EE0
:100488008B218D6F98518C25D96E99518D21DA6EFB
:1004980094C0DFFFAEEF02F096C08AF097C08BF0F1
:1004A800D8908A378B37D8908A378B37200E8A2591
:1004B8008C6F010E8B218D6F9E518C25D96E9F51AB
:1004C8008D21DA6EDF50956F98C08AF099C08BF055
:1004D800D8908A378B37D8908A378B37200E8A2561
:1004E8008C6F010E8B218D6F9E518C25D96E9F517B
:1004F8008D21DA6E96C08EF097C08FF0D8908E3727
:100508008F37D8908E378F37200E8E25906F010E3B
:100518008F21916F9E519025E16E9F519121E26E3E
:10052800DFCFE7FF98C08AF099C08BF0D8908A3760
:100538008B37D8908A378B37200E8A258C6F010E1F
:100548008B218D6F9E518C25D96E9F518D21DA6E2E
:1005580095C0DFFF964B972B9807D8A0990798511D
:10056800965D9751800A8A6F9951800A8A59D8A056
:10057800C0EF02F0C2EF02F0E8EF01F09E4B9F2BB4
:100588009FBFD0EF02F09F5109E1040E9E5DD8A0F5
:10059800D0EF02F0D2EF02F0D0EF01F01200000E1F
:1005A8000201E36F000EE26F000EEC6F020EEB6FBC
:1005B800010EE46F000EE66F000EE56FEBC2F0F17E
:1005C800ECC2F1F10101D890F037F137D890F0374B
:1005D800F137D890F037F137000EF025F26F020EA0
:1005E800F121F36F0201E5510101F225D96E0201F3
:1005F800E6510101F321DA6EDF50D8A406EF03F0CB
:1006080008EF03F00CEF03F00201E46B1DEF03F0B9
:100618000201E54BE62BE6BF1BEF03F0E65109E1CB
:10062800080EE55DD8A01BEF03F01DEF03F0E2EF25
:1006380002F0E451D8B423EF03F025EF03F0DAEF2A
:1006480003F0EBC2E7F2ECC2E8F281EF03F0000E30
:100658000201EE6F000EED6FE7C2F0F1E8C2F1F1B2
:100668000101D890F037F137D890F037F137D890AA
:10067800F037F137F80EF025F26F010EF121F36F24
:100688000201ED510101F225D96E0201EE5101017D
:10069800F321DA6EE7C2F4F1E8C2F5F1D890F43745
:1006A800F537D890F437F537D890F437F537000E8A
:1006B800F425F66F020EF521F76F0201ED510101E5
:1006C800F625E16E0201EE510101F721E26EDFCF5E
:1006D800E7FF0201ED4BEE2BEEBF7CEF03F0EE518E
:1006E80009E1080EED5DD8A07CEF03F07EEF03F082
:1006F80030EF03F0E707D8A0E807FF0EE725010170
:10070800F06FFF0E0201E8210101F16FF1BF98EFD0
:1007180003F0F15107E1020EF05DD8B096EF03F057
:1007280098EF03F02BEF03F0000E0201EA6F000EC2
:10073800E96F100EE925D96E020EEA21DA6EDF6A3A
:10074800E94BEA2BEABFB2EF03F0EA5109E1080EE0
:10075800E95DD8A0B2EF03F0B4EF03F09DEF03F02A
:100768006C4A6D2AC2EC1CF00201E24BE32B6CC010
:100778009CF06DC09DF0000E00019F6F0C0E9E6FE7
:10078800ABEC19F000019C519D11D8A4CEEF03F0F9
:10079800D0EF03F0DAEF03F0040EF465D6EF03F0C0
:1007A800D8EF03F0DAEF03F0020EF45F0201EB4B2F
:1007B800EC2BECBFE9EF03F0EC5109E1100EEB5D17
:1007C800D8A0E9EF03F0EBEF03F0DCEF02F0700ED6
:1007D8000001B96F010EBA6FF90EBB6F7F0EBC6FC7
:1007E800E2C2BDF0E3C2BEF0BEEC1FF0700E000125
:1007F8008A6F010E8B6FEEEC1BF012000001E06BAC
:100808007BBE10EF04F07B5009E1070E7A5CD8A09C
:1008180010EF04F012EF04F080EF04F0000EA76F61
:10082800000EA66FA651020DF350E40FD96EDA6AD6
:10083800A6C0DEFFA7C0DDFFA64BA72BA7BF2EEFE4
:1008480004F0A75109E1070EA65DD8A02EEF04F029
:1008580030EF04F016EF04F0000EA96F060EA86F33
:10086800ABEC1DF096C09CF097C09DF0010E000106
:10087800A8259E6F000EA9219F6FABEC19F09CC0B4
:10088800A4F09DC0A5F00001A851020DF350E40F9B
:10089800D96EDA6ADECFA2F0DDCFA3F0A451020D43
:1008A800F350E40FD96EDA6AA851020DF350E40F41
:1008B800E16EE26ADECFE6FFDDCFE5FFA451020D6F
:1008C800F350E40FD96EDA6AA2C0DEFFA3C0DDFFE1
:1008D800A807D8A0A907A9BF7CEF04F0A95106E191
:1008E800A805D8B07AEF04F07CEF04F034EF04F0F8
:1008F800000E7B6E000E7A6E7A50020DF350E40FF4
:10090800D96EDA6ADECFAAF0DDCFABF07A4A7B2A5D
:10091800AA51AB11D8A493EF04F095EF04F09FEF20
:1009280004F0E00E8A6F010E8B6F53EC19F0000192
:10093800E36B10EF05F0AA05AB11D8A4A6EF04F0FD
:10094800A8EF04F0B3EF04F0D00E8A6F010E8B6F9E
:1009580053EC19F0010E0001E36F10EF05F0020EE1
:10096800AA19AB11D8A4BBEF04F0BDEF04F0C8EF8F
:1009780004F0C00E8A6F010E8B6F53EC19F0020E53
:100988000001E36F10EF05F0030EAA19AB11D8A40C
:10099800D0EF04F0D2EF04F0DDEF04F0B00E8A6F70
:1009A800010E8B6F53EC19F0030E0001E36F10EF8B
:1009B80005F0040EAA19AB11D8A4E5EF04F0E7EF8F
:1009C80004F0F2EF04F0A00E8A6F010E8B6F53EC67
:1009D80019F0040E0001E36F10EF05F0050EAA19D7
:1009E800AB11D8A4FAEF04F0FCEF04F007EF05F020
:1009F800900E8A6F010E8B6F53EC19F0050E0001F3
:100A0800E36F10EF05F0800E8A6F010E8B6F53ECC9
:100A180019F0060E0001E36F000ED86F020ED76FB3
:100A2800000ED66F020ED56F12000001E06B7BBE80
:100A380027EF05F07B5009E1070E7A5CD8A027EF75
:100A480005F029EF05F095EF05F0000E1E6E000E7B
:100A58001D6E1D50020DF350E40FD96EDA6A1DC0E9
:100A6800DEFF1EC0DDFF1D4A1E2A1EBE45EF05F033
:100A78001E5009E1070E1D5CD8A045EF05F047EFB1
:100A880005F02DEF05F0000E206E060E1F6E19EC16
:100A98001EF00DC013F00EC014F0010E1F24156EC9
:100AA800000E2020166E5AEC1AF013C01BF014C06A
:100AB8001CF01F50020DF350E40FD96EDA6ADECF36
:100AC80019F0DDCF1AF01B50020DF350E40FD96E68
:100AD800DA6A1F50020DF350E40FE16EE26ADECFCE
:100AE800E6FFDDCFE5FF1B50020DF350E40FD96E92
:100AF800DA6A19C0DEFF1AC0DDFF1F06D8A020067B
:100B080020BE91EF05F0205006E11F04D8B08FEF0A
:100B180005F091EF05F04BEF05F0000E7B6E000E2F
:100B28007A6E7A50020DF350E40FD96EDA6ADECF8E
:100B380021F0DDCF22F07A4A7B2A21502210D8A456
:100B4800A8EF05F0AAEF05F0B4EF05F0E00E016E8E
:100B5800010E026E03EC1AF00001E36B25EF06F0BC
:100B680021042210D8A4BBEF05F0BDEF05F0C8EFB3
:100B780005F0D00E016E010E026E03EC1AF0010EA4
:100B88000001E36F25EF06F0020E21182210D8A409
:100B9800D0EF05F0D2EF05F0DDEF05F0C00E016EE5
:100BA800010E026E03EC1AF0020E0001E36F25EF4E
:100BB80006F0030E21182210D8A4E5EF05F0E7EFA0
:100BC80005F0F2EF05F0B00E016E010E026E03ECB7
:100BD8001AF0030E0001E36F25EF06F0040E21184A
:100BE8002210D8A4FAEF05F0FCEF05F007EF06F0A5
:100BF800A00E016E010E026E03EC1AF0040E000145
:100C0800E36F25EF06F0050E21182210D8A40FEF88
:100C180006F011EF06F01CEF06F0900E016E010EC3
:100C2800026E03EC1AF0050E0001E36F25EF06F0E3
:100C3800800E016E010E026E03EC1AF0060E000122
:100C4800E36F000ED86F020ED76F000ED66F020E3C
:100C5800D56F1200000E4B6E000E4A6E000E546ED9
:100C6800020E536E010E4C6E000E4E6E000E4D6E4F
:100C780053C042F054C043F0D89042364336D8901F
:100C880042364336D89042364336000E4224446EEC
:100C9800020E4320456E4D504424D96E4E504520D7
:100CA800DA6EDF50D8A45BEF06F05DEF06F060EF78
:100CB80006F04C6A70EF06F04D4A4E2A4EBE6EEFB3
:100CC80006F04E5009E1080E4D5CD8A06EEF06F014
:100CD80070EF06F03CEF06F04C50D8B476EF06F013
:100CE80078EF06F01CEF07F053C04FF054C050F0F7
:100CF800C9EF06F0000E566E000E556E4FC042F05A
:100D080050C043F0D89042364336D89042364336E6
:100D1800D89042364336F80E4224446E010E4320E2
:100D2800456E55504424D96E56504520DA6E4FC052
:100D380046F050C047F0D89046364736D8904636E9
:100D48004736D89046364736000E4624486E020E7F
:100D58004720496E55504824E16E56504920E26EAE
:100D6800DFCFE7FF554A562A56BEC4EF06F0565065
:100D780009E1080E555CD8A0C4EF06F0C6EF06F0EE
:100D880082EF06F04F06D8A05006FF0E4F24426EA1
:100D9800FF0E5020436E43BEDDEF06F0435007E1DF
:100DA800020E425CD8B0DBEF06F0DDEF06F07EEF16
:100DB80006F0000E526E000E516E100E5124D96EC0
:100DC800020E5220DA6EDF6A514A522A52BEF6EFFC
:100DD80006F0525009E1080E515CD8A0F6EF06F073
:100DE800F8EF06F0E1EF06F06C4A6D2AFEEC1CF015
:100DF8004A4A4B2A6CC013F06DC014F0000E166EF0
:100E08000C0E156E5AEC1AF013501410D8A40FEFEC
:100E180007F011EF07F01CEF07F0040E0001F4656E
:100E280018EF07F01AEF07F01CEF07F0020EF45F57
:100E3800534A542A54BE2AEF07F0545009E1100EC1
:100E4800535CD8A02AEF07F02CEF07F036EF06F036
:100E5800700E306E010E316EF90E326E7F0E336EEB
:100E68004AC034F04BC035F001EC20F0700E016E32
:100E7800010E026E7DEC1CF0120081A246EF07F015
:100E880048EF07F070EF07F07250D8A44EEF07F064
:100E980050EF07F070EF07F0340E0001AE6FF10E5F
:100EA800E82EFED7AE2FFCD700D081A25EEF07F068
:100EB80060EF07F070EF07F0000E29EC01F026EC68
:100EC80010F00009D8B46BEF07F06DEF07F070EF82
:100ED80007F0010E29EC01F081B275EF07F078EF09
:100EE80007F0010E79EF07F0000E726E81A07FEF18
:100EF80007F081EF07F0A0EF07F07350D8A487EF51
:100F080007F089EF07F0A0EF07F081A08EEF07F058
:100F180090EF07F0A0EF07F0010E29EC01F026ECA6
:100F280010F00009D8B49BEF07F09DEF07F0A0EF91
:100F380007F0000E29EC01F081B0A5EF07F0A8EF4B
:100F480007F0010EA9EF07F0000E736E81A4AFEF52
:100F580007F0B1EF07F0DAEF07F07150D8A4B7EF58
:100F680007F0B9EF07F0DAEF07F0340E0001AE6FC3
:100F7800F10EE82EFED7AE2FFCD700D081A4C7EF24
:100F880007F0C9EF07F0DAEF07F00001D74BD82BCD
:100F980026EC10F00009D8B4D4EF07F0D6EF07F02C
:100FA800DAEF07F00001D707D8A0D80781B4DFEF40
:100FB80007F0E2EF07F0010EE3EF07F0000E716EA5
:100FC80081A6E9EF07F0EBEF07F014EF08F0705097
:100FD800D8A4F1EF07F0F3EF07F014EF08F0340EA0
:100FE8000001AE6FF10EE82EFED7AE2FFCD700D071
:100FF80081A601EF08F003EF08F014EF08F00001F4
:10100800D707D8A0D80726EC10F00009D8B40FEFFE
:1010180008F011EF08F014EF08F00001D74BD82BB7
:1010280081B619EF08F01CEF08F0010E1DEF08F06B
:10103800000E706E81A823EF08F025EF08F03FEF4F
:1010480008F06F50D8A42BEF08F02DEF08F03FEF11
:1010580008F0340E0001AE6FF10EE82EFED7AE2F69
:10106800FCD700D081A83BEF08F03DEF08F03FEF38
:1010780008F084EC1EF081B844EF08F047EF08F060
:10108800010E48EF08F0000E6F6E1200700ED312BA
:101098000F0EC16E9380938293849386938880EC1D
:1010A80020F039EC1DF0D08EF28EF28C800E00010B
:1010B800986F250E996F000E9A6F000E9B6F000EA9
:1010C8009C6F11EC0DF0780E0001DD6F410EDE6FA4
:1010D800920EDB6F250EDC6F96EC20F09BEC15F082
:1010E800B1EC20F0010E0101FB6F000E00018F6FC3
:1010F8000101FB5177EC1FF00101FB2B080EFB658A
:1011080088EF08F08AEF08F079EF08F0000E000188
:101118008B6F020E8A6F72EC20F0000E0001DA6FFE
:10112800000ED96F0B0E0001CC6F260ECB6F5D0E33
:10113800E82EFED7CB2FFCD7CC2FFAD700D0000152
:10114800D951DA11D8A4ABEF08F0ADEF08F0D5EF1C
:1011580008F0B1EC20F056EC1BF0C9EF08F00C0ECB
:10116800D1259C6F000ED2219D6F000E9F6F500EEF
:101178009E6FABEC19F09CC0F8F19DC0F9F1F8C175
:10118800A2F0F9C1A3F0FEEC16F00001D951DA1172
:10119800D8B4D1EF08F0D3EF08F0B3EF08F0A3EF1D
:1011A80008F0D905DA11D8A4DCEF08F0DEEF08F072
:1011B8001CEF09F00101FA6B03EF09F041EC07F0AD
:1011C80041EC09F06CEC0FF01A0E0001CB6FF80E31
:1011D800E82EFED7CB2FFCD700000001D905DA1185
:1011E800D8B4F9EF08F0FBEF08F001EF09F041EC93
:1011F80009F06CEC0FF00EEF09F00101FA2B000179
:10120800F4510101FA5DD8A00CEF09F00EEF09F0D6
:10121800E2EF08F00001D905DA11D8A416EF09F0B9
:1012280018EF09F03DEF09F019EC1FF0A3EF08F0F3
:10123800020ED919DA11D8A424EF09F026EF09F023
:101248003DEF09F0B1EC20F0010E0001DF6F7EECFC
:1012580011F06CEC0FF0020E0001D919DA11D8B4B4
:1012680038EF09F03AEF09F02FEF09F0DF6BA3EF41
:1012780008F0A3EF08F027EF01F0000E0001976FC8
:10128800000E966F000E996F000E986F96C08AF048
:1012980097C08BF0D8908A378B37D8908A378B379E
:1012A800D8908A378B37000E8A258C6F020E8B21D7
:1012B8008D6F98518C25D96E99518D21DA6E96C013
:1012C8008EF097C08FF0D8908E378F37D8908E37A2
:1012D8008F37D8908E378F37000E8E25906F030E7C
:1012E8008F21916F98519025E16E99519121E26E6D
:1012F800DFCFE7FF984B992B99BF8CEF09F09951F5
:1013080009E1080E985DD8A08CEF09F08EEF09F07E
:101318004AEF09F0964B972B97BF9CEF09F097512E
:1013280009E1100E965DD8A09CEF09F09EEF09F038
:1013380046EF09F0000E9B6F000E9A6F000E9D6F2E
:10134800000E9C6F9AC08AF09BC08BF0D8908A37A9
:101358008B37D8908A378B37200E8A258C6F010EF1
:101368008B218D6F9C518C25D96E9D518D21DA6E04
:10137800DF50D8B4C2EF09F0C4EF09F015EF0AF056
:101388009A51D525926F9B51D621936F9C51D725A1
:10139800946F9D51D821956F93BFD5EF09F0D7EF82
:1013A80009F015EF0AF093BFE5EF09F0935107E153
:1013B800100E925DD8B0E3EF09F0E5EF09F015EFF4
:1013C8000AF095BFEAEF09F0ECEF09F015EF0AF023
:1013D80095BFFAEF09F0955107E1080E945DD8B072
:1013E800F8EF09F0FAEF09F015EF0AF092C08AF069
:1013F80093C08BF0D8908A378B37D8908A378B3741
:10140800D8908A378B37000E8A258C6F030E8B2174
:101418008D6F94518C25D96E95518D21DA6E010E00
:10142800DF6E9C4B9D2B9DBF23EF0AF09D5109E178
:10143800040E9C5DD8A023EF0AF025EF0AF0A6EF72
:1014480009F09A4B9B2B9BBF33EF0AF09B5109E1A4
:10145800040E9A5DD8A033EF0AF035EF0AF0A2EF38
:1014680009F012000001A751D96EDA6ADECFF6FF43
:10147800DDCFF7FF0800F550250AD8A446EF0AF09B
:1014880048EF0AF019EF0BF0A751D96EDA6ADE2A95
:10149800000EDD22000ECE6F000ECD6FCDC06EF0B7
:1014A800CF69D069A751D96EDA6ADECFACF0DDCF4B
:1014B800ADF0ACC0F6FFADC0F7FF0800F550640A08
:1014C800D8B469EF0AF06BEF0AF079EF0AF0ACC014
:1014D800F6FFADC0F7FF0800F550690AD8A477EF0A
:1014E8000AF079EF0AF010EF0BF0A851D96EDA6A1A
:1014F800020EDF26DF5CD96EDA6ADECFAEF0DECF11
:10150800AFF0010EAC25A96F000EAD21AA6FA7514F
:10151800D96EDA6AA9C0DEFFAAC0DDFF200EB26F5D
:10152800AFBF99EF0AF09CEF0AF0010E9DEF0AF0A9
:10153800000EAB6FB207000EB225D96EDA6A010E43
:10154800DA22AEC09CF0AFC09DF0000E9F6F0A0E6D
:101558009E6FABEC19F09CC0A2F09DC0A3F03DECCF
:1015680020F00001A251300FDF6EAEC08AF0AFC08C
:101578008BF0000E8D6F0A0E8C6FD5EC17F08AC0B9
:10158800AEF08BC0AFF00001AE51AF11D8B4CFEFC1
:101598000AF0D1EF0AF0D9EF0AF0B251D8A4D7EF88
:1015A8000AF0D9EF0AF09EEF0AF0B251D8B4DFEF93
:1015B8000AF0E1EF0AF005EF0BF0AB51D8B4E7EF12
:1015C8000AF0E9EF0AF005EF0BF0B207000EB225BA
:1015D800D96EDA6A010EDA222D0EDF6E05EF0BF0F6
:1015E800000EB225D96EDA6A010EDA22DF50A96F31
:1015F800A9518A6F8B6BA6C08CF098EC18F000018B
:10160800B22B200EB219D8A40CEF0BF00EEF0BF092
:10161800F4EF0AF02AEF0BF00001A751D96EDA6A4D
:10162800DE2A000EDD222AEF0BF0A751D96EDA6A06
:10163800DECFF6FFDDCFF7FF0800F5508A6F8B6B22
:10164800A6C08CF098EC18F010EF0BF01200000E0A
:101658000E6E000E0D6E000E106E000E0F6E0DC099
:1016680001F00EC002F0D89001360236D89001364B
:101678000236D89001360236000E0124036E020E9F
:101688000220046E0F500324D96E10500420DA6E25
:101698000DC005F00EC006F0D89005360636D89075
:1016A80005360636D89005360636000E0524076E30
:1016B800030E0620086E0F500724E16E1050082014
:1016C800E26EDFCFE7FF0F4A102A10BE75EF0BF06E
:1016D800105009E1080E0F5CD8A075EF0BF077EFFA
:1016E8000BF033EF0BF00D4A0E2A0EBE85EF0BF010
:1016F8000E5009E1100E0D5CD8A085EF0BF087EFB6
:101708000BF02FEF0BF0000E126E000E116E000E94
:10171800146E000E136E11C001F012C002F0D890C2
:1017280001360236D89001360236200E0124036EA7
:10173800010E0220046E13500324D96E14500420A5
:10174800DA6EDF50D8B4ABEF0BF0ADEF0BF0FFEF74
:101758000BF011500001D525096E1250D6210A6EE2
:101768001350D7250B6E1450D8210C6E0ABEBFEF4C
:101778000BF0C1EF0BF0FFEF0BF00ABECFEF0BF051
:101788000A5007E1100E095CD8B0CDEF0BF0CFEF8F
:101798000BF0FFEF0BF00CBED4EF0BF0D6EF0BF015
:1017A800FFEF0BF00CBEE4EF0BF00C5007E1080E56
:1017B8000B5CD8B0E2EF0BF0E4EF0BF0FFEF0BF0AF
:1017C80009C001F00AC002F0D89001360236D8905C
:1017D80001360236D89001360236000E0124036E17
:1017E800030E0220046E0B500324D96E0C50042003
:1017F800DA6E010EDF6E134A142A14BE0DEF0CF0D8
:10180800145009E1040E135CD8A00DEF0CF00FEF93
:101818000CF08FEF0BF0114A122A12BE1DEF0CF0DC
:10182800125009E1040E115CD8A01DEF0CF01FEF57
:101838000CF08BEF0BF012001E50D96EDA6ADECF77
:10184800F6FFDDCFF7FF0800F550250AD8A42FEFE3
:101858000CF031EF0CF0FFEF0CF01E50D96EDA6A85
:10186800DE2A000EDD22000E0001CE6F000ECD6FC5
:10187800CDC06EF0CF69D0691E50D96EDA6ADECF5E
:1018880023F0DDCF24F023C0F6FF24C0F7FF0800C3
:10189800F550640AD8B453EF0CF055EF0CF063EF31
:1018A8000CF023C0F6FF24C0F7FF0800F550690AC2
:1018B800D8A461EF0CF063EF0CF0F7EF0CF01F50B9
:1018C800D96EDA6A020EDF26DF5CD96EDA6ADECFFD
:1018D80025F0DECF26F0010E2324206E000E2420F2
:1018E800216E1E50D96EDA6A20C0DEFF21C0DDFFEE
:1018F800200E296E26BE83EF0CF086EF0CF0010E49
:1019080087EF0CF0000E226E2906000E2924D96EEE
:10191800DA6A010EDA2225C013F026C014F0000E90
:10192800166E0A0E156E5AEC1AF013C019F014C090
:101938001AF058EC20F01950300FDF6E25C001F076
:1019480026C002F0000E046E0A0E036E37EC18F083
:1019580001C025F002C026F025502610D8B4B7EFF4
:101968000CF0B9EF0CF0C1EF0CF02950D8A4BFEF80
:101978000CF0C1EF0CF088EF0CF02950D8B4C7EF89
:101988000CF0C9EF0CF0ECEF0CF02250D8B4CFEF0C
:101998000CF0D1EF0CF0ECEF0CF02906000E292426
:1019A800D96EDA6A010EDA222D0EDF6EECEF0CF03A
:1019B800000E2924D96EDA6A010EDA22DF50206E71
:1019C8002050016E026A1DC003F0F6EC18F0292AB7
:1019D800200E2918D8A4F3EF0CF0F5EF0CF0DCEF8B
:1019E8000CF010EF0DF01E50D96EDA6ADE2A000EE8
:1019F800DD2210EF0DF01E50D96EDA6ADECFF6FF49
:101A0800DDCFF7FF0800F550016E026A1DC003F034
:101A1800F6EC18F0F7EF0CF01200949C948EAC984A
:101A2800B886000E00018A6F120E8B6F7A0E8C6FCB
:101A3800000E8D6F98C08EF099C08FF09AC090F00C
:101A48009BC091F09AEC14F08AC09EF08BC09FF076
:101A58008CC0A0F08DC0A1F000019BBF44EF0DF039
:101A68009B519A1109E1610E985D090E9959D8B0F8
:101A780040EF0DF044EF0DF09D6B9D2B46EF0DF000
:101A880000019D6B9D479D47AC509D19FB0B9D190F
:101A9800AC6EACB852EF0DF054EF0DF07EEF0DF0D8
:101AA800B8B659EF0DF05BEF0DF07EEF0DF0ACB46A
:101AB80060EF0DF062EF0DF07EEF0DF09EC08AF042
:101AC8009FC08BF0A0C08CF0A1C08DF0400E8E6F2F
:101AD800000E8F6F000E906F000E916F9AEC14F04D
:101AE8008AC09EF08BC09FF08CC0A0F08DC0A1F082
:101AF800D6EF0DF0ACB883EF0DF085EF0DF0BCEF2D
:101B08000DF0ACB48AEF0DF08DEF0DF0010E8EEFF5
:101B18000DF0000E9D6FB8B694EF0DF097EF0DF035
:101B2800010E98EF0DF0000E9D1BD8B49EEF0DF03E
:101B3800A0EF0DF0BCEF0DF09EC08AF09FC08BF0B7
:101B4800A0C08CF0A1C08DF0100E8E6F000E8F6FAC
:101B5800000E906F000E916F9AEC14F08AC09EF000
:101B68008BC09FF08CC0A0F08DC0A1F0D6EF0DF017
:101B78009EC08AF09FC08BF0A0C08CF0A1C08DF0F1
:101B8800040E8E6F000E8F6F000E906F000E916F17
:101B98009AEC14F08AC09EF08BC09FF08CC0A0F025
:101BA8008DC0A1F09FC0B0FF9EC0AFFFAB8EAC8AC6
:101BB800AB889E9A9D8A00019CB102D09F9A01D061
:101BC8009F8A12009EAAEBEF0DF0EDEF0DF0AEEF3D
:101BD8000EF0ABA2F2EF0DF0F4EF0DF0F7EF0DF011
:101BE800AB980000AB889FEC20F05A6EABB4FFEFC7
:101BF8000DF001EF0EF0ABEF0EF096EF0EF0755012
:101C0800D8A409EF0EF00BEF0EF00DEF0EF0A9EFD0
:101C18000EF0080E8BEC20F0200E8BEC20F0080E56
:101C28008BEC20F07506300E7524D96EDA6A010E39
:101C3800DA22DF6AA9EF0EF00A0E5A18D8A427EFA5
:101C48000EF029EF0EF03CEF0EF07550D8A42FEFF0
:101C58000EF031EF0EF03CEF0EF00D0E7418D8A414
:101C680038EF0EF03AEF0EF03CEF0EF0A9EF0EF061
:101C7800300E7524D96EDA6A010EDA22DF6A0001A5
:101C8800DD51DE11D8B44BEF0EF04DEF0EF060EFE2
:101C98000EF0300E016E010E026E75C003F002D810
:101CA80060EF0EF00500FA6EDD51FD6EDE51FE6E3E
:101CB800F850FF6EFA501200000E756E300E752443
:101CC800D96EDA6A010EDA22DF6AA9EF0EF0000196
:101CD800DB51DC11D8B473EF0EF075EF0EF083EF23
:101CE8000EF002D883EF0EF00500FA6EDB51FD6EA0
:101CF800DC51FE6EF850FF6EFA505A5012003F0E3B
:101D0800756089EF0EF08BEF0EF0A9EF0EF0300E34
:101D18007524D96EDA6A010EDA225AC0DFFF752AF5
:101D2800A9EF0EF05A500A0AD8B420EF0EF0070AAD
:101D3800D8B420EF0EF0720AD8B403EF0EF0800A80
:101D4800D8B4A9EF0EF06BEF0EF05AC074F0010E84
:101D5800AFEF0EF0000E1200000E1D6E000E1E6E8C
:101D6800000E1F6E000E1A6E000E1B6E000E1C6E0B
:101D780003C01AF004C01BF001C01DF002C01EF021
:101D8800FF0E1D14076EFF0E1E14086E010E1F14A1
:101D9800096EFF0E1A140A6EFF0E1B140B6E010E4D
:101DA8001C140C6E07500A5C08500B5809500C584C
:101DB800D8B0E1EF0EF0E3EF0EF046EF0FF0FF0EB4
:101DC8001A14076EFF0E1B14086E010E1C14096E00
:101DD80007500A6E08500B6E09500C6E0D6A0550BC
:101DE8000A240E6E06500B200F6E000E0C20106E8B
:101DF800000E0D20116EFF0E1D14126EFF0E1E1424
:101E0800136E010E1F14146E1250156E1350166EB9
:101E18001450176E186A0E50155C0F501658105053
:101E2800175811501858D8B01CEF0FF01EEF0FF0CC
:101E380046EF0FF005501A2606501B2205501D26A6
:101E480006501E221A06D8A01B061AC0D9FF1BC0AE
:101E5800DAFFDF50196E1D06D8A01E061DC0D9FF77
:101E68001EC0DAFF19C0DFFF0506D8A00606055018
:101E78000610D8A442EF0FF044EF0FF026EF0FF052
:101E88006BEF0FF005500610D8B44DEF0FF04FEF81
:101E98000FF06BEF0FF01AC0D9FF1BC0DAFFDF504D
:101EA800196E1A4A1B2A1DC0D9FF1EC0DAFF19C0B5
:101EB800DFFF1D4A1E2A0506D8A006060550061093
:101EC800D8A469EF0FF06BEF0FF04FEF0FF012008F
:101ED800000E00019A6F000E996F936B000E966FBB
:101EE800000E956F0F0E8F6F000E906F99518F5FD8
:101EF8009A51905BD8908F379037D8908F3790371A
:101F0800D8908F379037000E8F25916F030E902150
:101F1800926F95519125D96E96519221DA6EDF50C4
:101F2800D8B499EF0FF09BEF0FF0AAEF0FF095C020
:101F38008FF0010E906F8F2BA4EF0FF0D890903791
:101F48008F2FA2EF0FF0000190519313954B962B12
:101F580096BFB8EF0FF0965109E1080E955DD8A02D
:101F6800B8EF0FF0BAEF0FF076EF0FF0946B000EAA
:101F7800986F000E976F070E8F6F000E906F995134
:101F88008F5F9A51905BD8908F379037D8908F3762
:101F98009037D8908F379037000E8F25916F030EAA
:101FA8009021926F97519125D96E98519221DA6EAE
:101FB800DF50D8B4E2EF0FF0E4EF0FF0F3EF0FF0DB
:101FC80097C08FF0010E906F8F2BEDEF0FF0D89028
:101FD80090378F2FEBEF0FF0000190519413974B30
:101FE800982B98BF01EF10F0985109E1080E975D02
:101FF800D8A001EF10F003EF10F0BFEF0FF08C90B6
:10200800992949EC1FF00001945149EC1FF0000197
:10201800992949EC1FF00001935149EC1FF08C807D
:102028000001994B9A2B9ABF23EF10F09A5109E1BE
:10203800080E995DD8A023EF10F025EF10F071EF8E
:102048000FF01200000E0001936F000E926F000E49
:10205800956F000E946F92C08AF093C08BF0D89061
:102068008A378B37D8908A378B37200E8A258C6F22
:10207800010E8B218D6F94518C25D96E95518D2130
:10208800DA6EDF50D8B44BEF10F04DEF10F0B0EF30
:1020980010F09451D7258E6F9551D8218F6F92519A
:1020A800D525906F9351D621916F8FBF5EEF10F0B9
:1020B80060EF10F08AEF10F08FBF6EEF10F08F51C5
:1020C80007E1080E8E5DD8B06CEF10F06EEF10F0DF
:1020D8008AEF10F091BF7AEF10F0915109E1020EEA
:1020E800905DD8A07AEF10F07CEF10F08AEF10F036
:1020F80091BF88EF10F0915109E1100E905DD8A0C2
:1021080088EF10F08AEF10F08DEF10F0010ED1EF8C
:1021180010F090C08AF091C08BF0D8908A378B3736
:10212800D8908A378B37D8908A378B37000E8A2514
:102138008C6F020E8B218D6F8E518C25D96E8F512D
:102148008D21DA6EDF50D8B4ACEF10F0AEEF10F09E
:10215800B0EF10F08AEF10F0944B952B95BFBEEFBF
:1021680010F0955109E1040E945DD8A0BEEF10F06F
:10217800C0EF10F02FEF10F0924B932B93BFCEEFE0
:1021880010F0935109E1040E925DD8A0CEEF10F043
:10219800D0EF10F02BEF10F0000E1200000E0A6EB8
:1021A800000E096E000E0C6E000E0B6E09C001F0D9
:1021B8000AC002F0D89001360236D89001360236AD
:1021C800200E0124036E010E0220046E0B5003241E
:1021D800D96E0C500420DA6EDF50D8B4F6EF10F048
:1021E800F8EF10F05CEF11F00B500001D725056EE9
:1021F8000C50D821066E0950D525076E0A50D621F5
:10220800086E06BE0AEF11F00CEF11F036EF11F070
:1022180006BE1AEF11F0065007E1080E055CD8B0AB
:1022280018EF11F01AEF11F036EF11F008BE26EF93
:1022380011F0085009E1020E075CD8A026EF11F052
:1022480028EF11F036EF11F008BE34EF11F0085006
:1022580009E1100E075CD8A034EF11F036EF11F049
:1022680039EF11F0010E7DEF11F007C001F008C041
:1022780002F0D89001360236D89001360236D8904E
:1022880001360236000E0124036E020E0220046E8F
:1022980005500324D96E06500420DA6EDF50D8B4F6
:1022A80058EF11F05AEF11F05CEF11F036EF11F022
:1022B8000B4A0C2A0CBE6AEF11F00C5009E1040E0F
:1022C8000B5CD8A06AEF11F06CEF11F0DAEF10F0A8
:1022D800094A0A2A0ABE7AEF11F00A5009E1040EE7
:1022E800095CD8A07AEF11F07CEF11F0D6EF10F06E
:1022F800000E1200000E6B6E000E6A6E0001DF51B8
:10230800D8A489EF11F08BEF11F0A2EF11F0000EB5
:10231800F36F640EF26FD8906A34F66E6B34F76E12
:10232800310EF6267F0EF7220900F5CF97F00A0046
:10233800F5CF98F020EC15F0B5EF11F0000EF36F23
:10234800310EF26FD8906A34D96E6B34DA6E800E23
:10235800D926020EDA22DECF97F0DDCF98F020ECF6
:1023680015F00001DF51D8A4BCEF11F0BEEF11F059
:10237800CFEF11F0D8906A34F66E6B34F76E690EB1
:10238800F6267E0EF7220900F5CFA3F00A00F5CF56
:10239800A4F0DCEF11F0D8906A34D96E6B34DA6EA1
:1023A800800ED926030EDA22DECFA3F0DDCFA4F00B
:1023B800A3C08AF0A4C08BF0000E8BBFFF0E8C6FF9
:1023C8008D6FE80E8E6F030E8F6F000E906F000EEC
:1023D800916FE3EC1DF0080EF8EF11F00001D890B2
:1023E8008D338C338B338A33E82EF2EF11F08AC0A9
:1023F800A7F08BC0A8F08CC0A9F08DC0AAF0AA5194
:1024080008E1A905D8A00BEF12F00DEF12F015EFB7
:1024180012F0FF0EA76FFF0EA86F000EA96F000E37
:10242800AA6FA7510008A56FA851D8A0E82A0008EC
:10243800A66FA651D76EA5C0D6FFD58EF29412000E
:10244800000E6B6E000E6A6E0001DF51D8A42FEFEC
:1024580012F031EF12F048EF12F0000EF36F640E35
:10246800F26FD8906A34F66E6B34F76E310EF6263A
:102478007F0EF7220900F5CF0EF00A00F5CF0FF016
:1024880014EC16F05BEF12F0000EF36F310EF26FE2
:10249800D8906A34D96E6B34DA6E800ED926020E63
:1024A800DA22DECF0EF0DDCF0FF014EC16F00001CB
:1024B800DF51D8A462EF12F064EF12F075EF12F05A
:1024C800D8906A34F66E6B34F76E690EF6267E0E77
:1024D800F7220900F5CF1AF00A00F5CF1BF082EFBA
:1024E80012F0D8906A34D96E6B34DA6E800ED92621
:1024F800030EDA22DECF1AF0DDCF1BF01AC001F08E
:102508001BC002F0000E02BEFF0E036E046EE80E42
:10251800056E030E066E000E076E000E086E4FEC79
:102528001EF0080E9DEF12F0D890043203320232EA
:102538000132E82E98EF12F001C01EF002C01FF021
:1025480003C020F004C021F0215008E12004D8A0E5
:10255800B0EF12F0B2EF12F0BAEF12F0FF0E1E6EEB
:10256800FF0E1F6E000E206E000E216E1E5000081A
:102578001C6E1F50D8A0E82A00081D6E1D50D76E8B
:102588001CC0D6FFD58EF2941200596E5A0E5918F7
:10259800D8A4D1EF12F0D3EF12F0E0EF12F0000E52
:1025A8000001DA6F000ED96F000ED26F000ED16FE6
:1025B800A2EC1BF067EF13F00001D951DA11D8A48F
:1025C800E8EF12F0EAEF12F01DEF13F00EEF13F040
:1025D800D14BD22BD2BFFAEF12F0D25109E1500EF3
:1025E800D15DD8A0FAEF12F0FCEF12F067EF13F00C
:1025F800000ED26F000ED16F67EF13F0000EDA6F86
:10260800010ED96FA2EC1BF019EC05F024EC12F0C6
:1026180067EF13F059504D0AD8B4ECEF12F01F0AC7
:10262800D8B4FCEF12F0010AD8B402EF13F067EF48
:1026380013F0D905DA11D8A424EF13F026EF13F01C
:1026480067EF13F050EF13F0000EDA6F020ED96F38
:102658002BEC0BF067EF13F0000E586E010E576E5F
:1026680036EC1CF067EF13F0000E586E020E576E32
:1026780036EC1CF067EF13F0000E586E030E576E21
:1026880036EC1CF067EF13F0000E586E040E576E10
:1026980036EC1CF067EF13F05950310AD8B430EF1C
:1026A80013F0030AD8B438EF13F0010AD8B440EF96
:1026B80013F0070AD8B448EF13F0750AD8B428EF16
:1026C80013F067EF13F01200000E0001936F000E75
:1026D800926F000E956F000E946F92C08AF093C0AF
:1026E8008BF0D8908A378B37D8908A378B37200E63
:1026F8008A258C6F010E8B218D6F94518C25D96E94
:1027080095518D21DA6EDF50D8B48DEF13F08FEF2D
:1027180013F0E0EF13F09451D7258E6F9551D8211F
:102728008F6F9251D525906F9351D621916F8FBF9E
:10273800A0EF13F0A2EF13F0E0EF13F08FBFB0EFAC
:1027480013F08F5107E1080E8E5DD8B0AEEF13F08D
:10275800B0EF13F0E0EF13F091BFB5EF13F0B7EF60
:1027680013F0E0EF13F091BFC5EF13F0915107E1BB
:10277800100E905DD8B0C3EF13F0C5EF13F0E0EF83
:1027880013F090C08AF091C08BF0D8908A378B37BD
:10279800D8908A378B37D8908A378B37000E8A259E
:1027A8008C6F020E8B218D6F8E518C25D96E8F51B7
:1027B8008D21DA6E010EDF6E944B952B95BFEEEFEF
:1027C80013F0955109E1040E945DD8A0EEEF13F0D3
:1027D800F0EF13F071EF13F0924B932B93BFFEEFD2
:1027E80013F0935109E1040E925DD8A0FEEF13F0A7
:1027F80000EF14F06DEF13F01200000E0A6E000ED9
:10280800096E000E0C6E000E0B6E09C001F00AC0B6
:1028180002F0D89001360236D89001360236200EE2
:102828000124036E010E0220046E0B500324D96E9E
:102838000C500420DA6EDF50D8B425EF14F027EFDF
:1028480014F079EF14F00B500001D725056E0C50E9
:10285800D821066E0950D525076E0A50D621086E74
:1028680006BE39EF14F03BEF14F079EF14F006BE12
:1028780049EF14F0065007E1080E055CD8B047EFA1
:1028880014F049EF14F079EF14F008BE4EEF14F08D
:1028980050EF14F079EF14F008BE5EEF14F0085012
:1028A80007E1100E075CD8B05CEF14F05EEF14F08F
:1028B80079EF14F007C001F008C002F0D890013693
:1028C8000236D89001360236D89001360236000E0C
:1028D8000124036E020E0220046E05500324D96EF3
:1028E80006500420DA6E010EDF6E0B4A0C2A0CBE6D
:1028F80087EF14F00C5009E1040E0B5CD8A087EFA9
:1029080014F089EF14F009EF14F0094A0A2A0ABEF4
:1029180097EF14F00A5009E1040E095CD8A097EF6C
:1029280014F099EF14F005EF14F012000001936B06
:1029380091BFA3EF14F0A1EF14F0ADEF14F0911FC5
:10294800901F8F1F8E6D000E8F2390239123010EF1
:10295800936F8DBFB4EF14F0B2EF14F0BEEF14F024
:102968008D1F8C1F8B1F8A6D000E8B238C238D234C
:10297800010E931B000E946F000E956F000E966F5C
:10298800000E976F8E518F1190119111D8B4CFEF1F
:1029980014F0D1EF14F007EF15F0010E926FDBEF92
:1029A80014F0D8908E378F3790379137922B91AF9C
:1029B800E0EF14F0E2EF14F0D5EF14F0D89094376C
:1029C8009537963797378E518A5D8F518B5990512D
:1029D8008C5991518D59D8A0F4EF14F0F6EF14F0FA
:1029E800FFEF14F08E518A5F8F518B5B90518C5B97
:1029F80091518D5B9481D890913390338F338E337E
:102A0800922FE2EF14F09351D8B40DEF15F00FEFB9
:102A180015F017EF15F0971F961F951F946D000E70
:102A280095239623972394C08AF095C08BF096C07F
:102A38008CF097C08DF01200000197519811D8A41E
:102A480028EF15F02AEF15F02FEF15F0BE6ACF0E1C
:102A5800BD169AEF15F0CA94CC6A000E8A6F120E52
:102A68008B6F7A0E8C6F000E8D6F97C099F098C09F
:102A78009AF0000E9ABFFF0E9B6F9C6F060ED890BF
:102A880099379A379B379C37E82E43EF15F099C052
:102A98008EF09AC08FF09BC090F09CC091F0B1EC82
:102AA8001AF0FF0E00018A259F6FFF0E8B21A06F81
:102AB800FF0E8C21A16FFF0E8D21A26FA251A111D3
:102AC80008E1A005D8A06BEF15F06DEF15F075EFD4
:102AD80015F0FF0E9F6F000EA06F000EA16F000E85
:102AE800A26F9FC0CBFFCB50996F9A6BD890993744
:102AF8009A37020E99259D6F000E9A219E6F9DC0F0
:102B080099F09EC09AF0D8909A339933D8909A3316
:102B180099339951BE6E9DC099F0030E9917993B50
:102B2800BD509919CF0B9919BD6ECA841200F19442
:102B3800D59CD59AD596070ED512D59E0001DF51A2
:102B4800D8A4A9EF15F0ABEF15F0BCEF15F0D890AD
:102B58006A34F66E6B34F76E690EF6267E0EF7222F
:102B68000900F5CF96F00A00F5CF97F0C9EF15F0F8
:102B7800D8906A34D96E6B34DA6E800ED926030E7B
:102B8800DA22DECF96F0DDCF97F096C08AF097C0B4
:102B98008BF0000E8BBFFF0E8C6F8D6FE80E8E6F63
:102BA800030E8F6F000E906F000E916FE3EC1DF017
:102BB800080EE5EF15F00001D8908D338C338B3378
:102BC8008A33E82EDFEF15F08AC09AF08BC09BF0AD
:102BD8008CC09CF08DC09DF09D5108E19C05D8A04B
:102BE800F8EF15F0FAEF15F002EF16F0FF0E9A6FF6
:102BF800FF0E9B6F000E9C6F000E9D6F9A51000890
:102C0800986F9B51D8A0E82A0008996F9951D76E00
:102C180098C0D6FFF294F28AF28CF28ED58E12000A
:102C28000E500F10D8A41BEF16F01DEF16F022EF70
:102C380016F0BE6ACF0EBD168CEF16F0CA94CC6A99
:102C4800000E016E120E026E7A0E036E000E046EF6
:102C58000EC010F00FC011F0000E11BEFF0E126E64
:102C6800136E060ED8901036113612361336E82E2B
:102C780036EF16F010C005F011C006F012C007F0CC
:102C880013C008F004EC1BF0FF0E0124166EFF0EB3
:102C98000220176EFF0E0320186EFF0E0420196E17
:102CA8001950181008E11704D8A05DEF16F05FEF6F
:102CB80016F067EF16F0FF0E166E000E176E000E78
:102CC800186E000E196E16C0CBFFCB50106E116A2D
:102CD800D89010361136020E1024146E000E1120F2
:102CE800156E14C010F015C011F0D89011321032C2
:102CF800D890113210321050BE6E14C010F0030E6E
:102D08001016103ABD501018CF0B1018BD6ECA849B
:102D18001200D00EF66E3D0EF76E000EF86E03EE42
:102D280080F010EE62F00900F5CFEEFFE550E150BB
:102D3800FAE16E0EF66E3D0EF76E000EF86E02EEBC
:102D480080F010EE62F00900F5CFEEFFE550E1509B
:102D5800FAE1E60EF66E3A0EF76E000EF86E01EE28
:102D680080F010EE70F00900F5CFEEFFE550E1506D
:102D7800FAE1500EF66E410EF76E000EF86E00EE98
:102D8800E4F010EE11F00900F5CFEEFFE550E15048
:102D9800FAE1740EF66E410EF76E000EF86E090039
:102DA800F5CF7AF00900F5CF7BF003EE00F0800E46
:102DB800EE6AE806FDE102EE00F0800EEE6AE80633
:102DC800FDE101EE00F0800EEE6AE806FDE100EE9E
:102DD800CDF0170EEE6AE806FDE100EE6AF0100E7F
:102DE800EE6AE806FDE17C907C92000EF86E000128
:102DF8004AEF08F0000E0001AF6F000EAE6F000E34
:102E0800B16F000EB06FB051A2259C6FB151A321D4
:102E18009D6F000E9F6F500E9E6FABEC19F0500E19
:102E28000001AE03F3CFA4F0F4CFA5F0AF03F35045
:102E3800A527690EA425A66F790EA521A76F9C5119
:102E4800A625A86F9D51A721A96FA8C0F6FFA9C004
:102E5800F7FFAEC0AAF0AFC0ABF0D890AA37AB3737
:102E6800D890AA37AB37D890AA37AB37000EAA2527
:102E7800AC6F030EAB21AD6FB051AC25D96EB1511B
:102E8800AD21DA6E0800F5CFDFFFB04BB12BB1BF33
:102E980057EF17F0B15109E1080EB05DD8A057EF10
:102EA80017F059EF17F007EF17F0AE4BAF2BAFBF86
:102EB80067EF17F0AF5109E1100EAE5DD8A067EFCC
:102EC80017F069EF17F003EF17F06CEC0FF0120032
:102ED80000019A6F9AC0E3F0AAEF17F0E00E8A6F2C
:102EE800010E8B6F53EC19F0D4EF17F0D00E8A6FE8
:102EF800010E8B6F53EC19F0D4EF17F0C00E8A6FE8
:102F0800010E8B6F53EC19F0D4EF17F0B00E8A6FE7
:102F1800010E8B6F53EC19F0D4EF17F0A00E8A6FE7
:102F2800010E8B6F53EC19F0D4EF17F0900E8A6FE7
:102F3800010E8B6F53EC19F0D4EF17F0800E8A6FE7
:102F4800010E8B6F53EC19F0D4EF17F000019A5172
:102F5800986F996B9951000AD8B4B5EF17F0D4EF70
:102F680017F09851000AD8B472EF17F0010AD8B4D4
:102F78007AEF17F0030AD8B482EF17F0010AD8B431
:102F88008AEF17F0070AD8B492EF17F0010AD8B4FD
:102F98009AEF17F0030AD8B4A2EF17F0D4EF17F09E
:102FA800120000018F6B8DBFDEEF17F0DCEF17F01A
:102FB800E4EF17F08C6D8D1FD8B08D2B010E8F6F3D
:102FC8008BBFEBEF17F0E9EF17F0F1EF17F08A6D11
:102FD8008B1FD8B08B2B010E8F1B000E916F000E2C
:102FE800906F8C518D11D8B4FCEF17F0FEEF17F0ED
:102FF80026EF18F0010E8E6F06EF18F0D8908C3778
:103008008D378E2B8DAF0BEF18F00DEF18F002EF08
:1030180018F0D890903791378C518A5D8D518B5923
:10302800D8A019EF18F01BEF18F020EF18F08C510A
:103038008A5F8D518B5B9081D8908D338C338E2F26
:103048000DEF18F08F51D8B42CEF18F02EEF18F0C0
:1030580032EF18F0906D911FD8B0912B90C08AF084
:1030680091C08BF01200066A04BE3FEF18F03DEFE6
:1030780018F045EF18F0036C041ED8B0042A010EAE
:10308800066E02BE4CEF18F04AEF18F052EF18F037
:10309800016C021ED8B0022A010E061A000E086E34
:1030A800000E076E03500410D8B45DEF18F05FEF00
:1030B80018F087EF18F0010E056E67EF18F0D8903A
:1030C80003360436052A04AE6CEF18F06EEF18F0DC
:1030D80063EF18F0D890073608360350015C0450A7
:1030E8000258D8A07AEF18F07CEF18F081EF18F0AA
:1030F8000350015E0450025A0780D890043203320C
:10310800052E6EEF18F00650D8B48DEF18F08FEF3B
:1031180018F093EF18F0076C081ED8B0082A07C0FB
:1031280001F008C002F0120000018C51D8B49FEFE2
:1031380018F0A1EF18F0A9EF18F08C51D8A4A7EF58
:1031480018F0A9EF18F0AEEF18F08A51BBEC20F098
:10315800F5EF18F08C51D96EDA6A090ED926DE50CF
:10316800DE10D8B4BAEF18F0BCEF18F0D5EF18F0AD
:103178008C51D96EDA6A090ED9268C51E16EE26A51
:10318800020EE126DE50E65CE650800A916FDE50C2
:10319800800A9159D8B0D3EF18F0D5EF18F0F5EFB1
:1031A80018F08C51D96EDA6A020ED926DECF8DF06E
:1031B800DDCF8EF08C51D96EDA6ADECF8FF0DDCF9D
:1031C80090F08D518F25D96E8E519021DA6E8AC07C
:1031D800DFFF8C51D96EDA6A020ED926DE2A000E7C
:1031E800DD2212000350D8B4FCEF18F0FEEF18F0FF
:1031F80006EF19F00350D8A404EF19F006EF19F000
:103208000BEF19F00150BDEC20F052EF19F003500C
:10321800D96EDA6A090ED926DE50DE10D8B417EF57
:1032280019F019EF19F032EF19F00350D96EDA6A74
:10323800090ED9260350E16EE26A020EE126DE503D
:10324800E65CE650800A086EDE50800A0858D8B05E
:1032580030EF19F032EF19F052EF19F00350D96E30
:10326800DA6A020ED926DECF04F0DDCF05F003506E
:10327800D96EDA6ADECF06F0DDCF07F004500624F7
:10328800D96E05500720DA6E01C0DFFF0350D96EF2
:10329800DA6A020ED926DE2A000EDD221200000E9E
:1032A8000001956F000E946F000E976F000E966FD9
:1032B80094C08CF095C08DF0D8908C378D37D8900D
:1032C8008C378D378C518A258E6F8D518B218F6F5E
:1032D80096518E25D96E97518F21DA6E94C090F051
:1032E80095C091F0D89090379137D8909037913712
:1032F800200E9025926F010E9121936F9651922581
:10330800E16E97519321E26EDFCFE7FF964B972B43
:1033180097BF98EF19F0975109E1040E965DD8A070
:1033280098EF19F09AEF19F05CEF19F0944B952B80
:1033380095BFA8EF19F0955109E1040E945DD8A046
:10334800A8EF19F0AAEF19F058EF19F012000001D0
:10335800A16B9DBFB4EF19F0B2EF19F0BAEF19F0F5
:103368009C6D9D1FD8B09D2B010EA16F9FBFC1EF13
:1033780019F0BFEF19F0C5EF19F09E6D9F1FD8B077
:103388009F2B9E519F11D8B4CCEF19F0CEEF19F0B6
:10339800F2EF19F0010EA06FD6EF19F0D8909E3712
:1033A8009F37A02B9FAFDBEF19F0DDEF19F0D2EFBD
:1033B80019F09E519C5D9F519D59D8A0E6EF19F0D8
:1033C800E8EF19F0ECEF19F09E519C5F9F519D5B5F
:1033D800D8909F339E33A02FDDEF19F0A151D8B4B8
:1033E800F8EF19F0FAEF19F0FEEF19F09C6D9D1F38
:1033F800D8B09D2B9CC09CF09DC09DF01200000E83
:103408000C6E000E0B6E000E0E6E000E0D6E0BC0D5
:1034180003F00CC004F0D89003360436D890033675
:10342800043603500124056E04500220066E0D5028
:103438000524D96E0E500620DA6E0BC007F00CC0BA
:1034480008F0D89007360836D89007360836200E88
:103458000724096E010E08200A6E0D500924E16E3A
:103468000E500A20E26EDFCFE7FF0D4A0E2A0EBE8D
:1034780047EF1AF00E5009E1040E0D5CD8A047EF93
:103488001AF049EF1AF00BEF1AF00B4A0C2A0CBE8F
:1034980057EF1AF00C5009E1040E0B5CD8A057EF57
:1034A8001AF059EF1AF007EF1AF01200186A14BE52
:1034B80062EF1AF060EF1AF068EF1AF0136C141E3E
:1034C800D8B0142A010E186E16BE6FEF1AF06DEF01
:1034D8001AF073EF1AF0156C161ED8B0162A15508C
:1034E8001610D8B47AEF1AF07CEF1AF0A0EF1AF0A1
:1034F800010E176E84EF1AF0D89015361636172A73
:1035080016AE89EF1AF08BEF1AF080EF1AF015500B
:10351800135C16501458D8A094EF1AF096EF1AF0CE
:103528009AEF1AF01550135E1650145AD8901632A6
:103538001532172E8BEF1AF01850D8B4A6EF1AF0E0
:10354800A8EF1AF0ACEF1AF0136C141ED8B0142AB6
:1035580013C013F014C014F01200000E0001926F93
:10356800000E936F000E946F000E956F8E518F11A1
:1035780090119111D8B4C3EF1AF0C5EF1AF0FBEF10
:103588001AF0010E966FCFEF1AF0D8908E378F375A
:1035980090379137962B91AFD4EF1AF0D6EF1AF0F7
:1035A800C9EF1AF0D89092379337943795378E51E0
:1035B8008A5D8F518B5990518C5991518D59D8A052
:1035C800E8EF1AF0EAEF1AF0F3EF1AF08E518A5F7B
:1035D8008F518B5B90518C5B91518D5B9281D89010
:1035E800913390338F338E33962FD6EF1AF092C0E3
:1035F8008AF093C08BF094C08CF095C08DF01200C7
:10360800000E096E000E0A6E000E0B6E000E0C6E98
:103618000550061007100810D8B415EF1BF017EF67
:103628001BF04DEF1BF0010E0D6E21EF1BF0D89033
:1036380005360636073608360D2A08AE26EF1BF083
:1036480028EF1BF01BEF1BF0D89009360A360B3613
:103658000C360550015C06500258075003580850B4
:103668000458D8A03AEF1BF03CEF1BF045EF1BF0D5
:103678000550015E0650025A0750035A0850045A72
:103688000980D89008320732063205320D2E28EF0D
:103698001BF009C001F00AC002F00BC003F00CC017
:1036A80004F01200000E6D6E000E6C6E100E00011C
:1036B800F46F000E956F000E946F000E976F000E5A
:1036C800966F94C090F095C091F0D890903791374C
:1036D800D89090379137D89090379137000E902531
:1036E800926F020E9121936F96519225D96E975140
:1036F8009321DA6EDF6A964B972B97BF8DEF1BF0FD
:10370800975109E1080E965DD8A08DEF1BF08FEF59
:103718001BF065EF1BF0944B952B95BF9DEF1BF0AD
:10372800955109E1100E945DD8A09DEF1BF09FEF15
:103738001BF061EF1BF0C2EC1CF01200000E6D6E66
:10374800000E6C6E100E0001F46F000E0C6E000E71
:103758000B6E000E0E6E000E0D6E0BC007F00CC047
:1037680008F0D89007360836D89007360836D8902B
:1037780007360836000E0724096E020E08200A6E66
:103788000D500924D96E0E500A20DA6EDF6A0D4AF0
:103798000E2A0EBED9EF1BF00E5009E1080E0D5C83
:1037A800D8A0D9EF1BF0DBEF1BF0B1EF1BF00B4AF1
:1037B8000C2A0CBEE9EF1BF00C5009E1100E0B5C53
:1037C800D8A0E9EF1BF0EBEF1BF0ADEF1BF0FEEC20
:1037D8001CF01200000E00018F6F000E8E6F17EFA5
:1037E8001CF0ACA2FAEF1BF0FCEF1BF0F5EF1BF09E
:1037F80000018E518A258C6F8F518B218D6F8CC063
:10380800F6FF8DC0F7FFF86A050EF76403D00800CD
:10381800F55005D0F6CFE1FFF7CFE2FFE750AD6EE8
:1038280000018E4B8F2B8E518A258C6F8F518B21E7
:103838008D6F8CC0F6FF8DC0F7FFF86A050EF76430
:1038480003D00800F55005D0F6CFE1FFF7CFE2FF2F
:10385800E7500009D8A433EF1CF035EF1CF0F5EF62
:103868001BF01200000E016E020E026E080E036EAF
:10387800020E046E000E066E700E056EB0EC0EF0B1
:10388800780E016E020E026E000E046E010E036EBB
:10389800000E066E080E056E21EC20F0780E000171
:1038A800D325D96E020ED421DA6EDF6AD2EC10F07D
:1038B8000009D8B462EF1CF064EF1CF07CEF1CF038
:1038C8000001D507D8A0D60701EC14F02EEC06F0BD
:1038D80019EC05F0D2EC10F00009D8B476EF1CF022
:1038E80078EF1CF07CEF1CF0A2EC1BF019EC05F053
:1038F8001200000E066E000E056EA3EF1CF0ACA2BF
:1039080088EF1CF08AEF1CF083EF1CF005500124AF
:10391800036E06500220046E03C0F6FF04C0F7FFD2
:10392800F86A050EF76403D00800F55005D0F6CF05
:10393800E1FFF7CFE2FFE750AD6E054A062A0550D2
:103948000124036E06500220046E03C0F6FF04C073
:10395800F7FFF86A050EF76403D00800F55005D0A4
:10396800F6CFE1FFF7CFE2FFE7500009D8A4BFEF99
:103978001CF0C1EF1CF083EF1CF012006CC08AF041
:103988006DC08BF0000E00018D6F000E8C6F000E65
:103998008F6F800E8E6F8E518A5D8F518B59D8A094
:1039A800D8EF1CF0DAEF1CF0E8EF1CF08E518A5FBC
:1039B8008F518B5B000E8C25D96E020E8D21DA6E2D
:1039C800010EDF6EEFEF1CF0000E8C25D96E020E93
:1039D8008D21DA6EDF6A8C4B8D2BD8908F338E3326
:1039E8008E518F11D8A4FBEF1CF0FDEF1CF0CFEF28
:1039F8001CF012006CC001F06DC002F0000E046EE5
:103A0800000E036E000E066E800E056E0550015CFA
:103A180006500258D8A013EF1DF015EF1DF023EF44
:103A28001DF00550015E0650025A000E0324D96E9F
:103A3800020E0420DA6E010EDF6E2AEF1DF0000E72
:103A48000324D96E020E0420DA6EDF6A034A042AC0
:103A5800D8900632053205500610D8A436EF1DF06E
:103A680038EF1DF00AEF1DF01200000E00018F6FF5
:103A78000F0E77EC1FF0070E00018F6F0B0E77EC1F
:103A88001FF0000E00018F6F090E77EC1FF0020E79
:103A980000018F6F0A0E77EC1FF0010E00018F6F87
:103AA8000C0E77EC1FF0000E0001946F010E936F5F
:103AB800000E8F6F935177EC1FF00001934B942BFE
:103AC80094BF70EF1DF0945109E1090E935DD8A0E1
:103AD80070EF1DF072EF1DF05CEF1DF0120000009A
:103AE80001000101010000000000000000000100C9
:103AF80000000101010000000000000000000101B9
:103B080000000001010000000000000000000001AA
:103B18000100010100000000000000000000000199
:103B28000000010101000000000000000000000189
:103B3800010000010100000000000000000000007A
:103B4800000001010101000000000000000076C033
:103B58008AF077C08BF078C08CF079C08DF02D0E8C
:103B680000018E6F7F0E8F6F950E906F4C0E916FC8
:103B7800E3EC1DF0010E00018A25766E000E8B2104
:103B8800776E000E8C21786E000E8D21796E76C0CE
:103B980098F077C099F078C09AF079C09BF0120E2F
:103BA800DBEF1DF0D8909B339A3399339833E82E86
:103BB800D6EF1DF098C096F099C097F01200000E4D
:103BC8000001926F000E936F000E946F000E956FB8
:103BD8008AA1F1EF1DF0F3EF1DF0FBEF1DF08E5100
:103BE80092278F5193239051942391519523D890E4
:103BF8008E378F3790379137D8908D338C338B33FE
:103C08008A338A518B118C118D11D8A40EEF1EF0B6
:103C180010EF1EF0ECEF1DF092C08AF093C08BF00D
:103C280094C08CF095C08DF0120076C001F077C07A
:103C380002F078C003F079C004F02D0E056E7F0EF7
:103C4800066E950E076E4C0E086E4FEC1EF0010EB8
:103C58000124766E000E0220776E000E0320786E27
:103C6800000E0420796E76C00FF077C010F078C08F
:103C780011F079C012F0120E47EF1EF0D8901232F0
:103C8800113210320F32E82E42EF1EF00FC00DF045
:103C980010C00EF01200000E096E000E0A6E000E23
:103CA8000B6E000E0C6E01A05CEF1EF05EEF1EF0B6
:103CB80066EF1EF00550092606500A2207500B220F
:103CC80008500C22D8900536063607360836D890A4
:103CD8000432033202320132015002100310041080
:103CE800D8A479EF1EF07BEF1EF057EF1EF009C045
:103CF80001F00AC002F00BC003F00CC004F012007F
:103D08000001E051D8B48BEF1EF08DEF1EF08FEF5D
:103D18001EF0B6EF1EF0010EE06FE3C0ADF0E1510A
:103D2800D8A499EF1EF09BEF1EF0A6EF1EF0ADC0D1
:103D3800E2F0010EE16F02EC04F0010E0001E06F09
:103D4800B6EF1EF0E2C0ACF0ADC0E2F0AC516CECE6
:103D580017F0000E0001D86F020ED76F000ED66F55
:103D6800020ED56F12007003000070030000C80532
:103D780000002605000096040000DC030000700324
:103D8800000070030000C805000026050000960426
:103D9800000016040000DC030000DC03000020061D
:103DA8000000C80500002605000016040000E00613
:103DB8000000E0060000E0060000200600002605DE
:103DC8000000C8050000FFFF1C011F001C011F00A8
:103DD8001C011F001C011F001C011F0055035E0071
:103DE8001C011F001C011F001C011F001C011F00DB
:103DF8001C011F0055035E001C011F001C011F0051
:103E08001C011F001C011F001C011F0055035E0040
:103E18001C011F001C011F001C011F001C011F00AA
:103E28001C011F001C011F003C010001D54BD62BB3
:103E380026EC10F00009D8B424EF1FF026EF1FF08D
:103E480048EF1FF00001D507D8A0D60768EC13F09B
:103E5800D3EC02F002EC04F026EC10F00009D8B420
:103E680038EF1FF03AEF1FF048EF1FF0000E000187
:103E7800DA6F020ED96F41EC09F0FC0E00018A6F6F
:103E88007F0E8B6FEEEC1BF0120000018C6F000EA2
:103E980000018E6F070E8D6F8B968DC08AF08CC0D7
:103EA8008BF08A2B5AEF1FF0D8908B338A2F58EF5C
:103EB8001FF0010E00018B178B3B8B478B508B1922
:103EC800DF0B8B198B6E8B86000000008B96000130
:103ED8008D07D8A08E078EBF76EF1FF074EF1FF006
:103EE80050EF1FF012000001906F8C90000E00013F
:103EF800926F000E916F905149EC1FF000018F51A5
:103F080049EC1FF00001914B922B92BF95EF1FF0E7
:103F1800925109E1020E915DD8A095EF1FF097EF3D
:103F28001FF07FEF1FF08C80000000001200B4C06B
:103F3800B7F0B5C0B8F0AAEF1FF0B3C0A6F0B70E3F
:103F48000001A76FB6C0A8F036EC0AF0B7C0F6FFBC
:103F5800B8C0F7FF0800F5500009D8A4B6EF1FF065
:103F6800B8EF1FF0A1EF1FF0000E0001B46F000EB4
:103F7800B36F1200BD0E0001BF6FB9C0C0F0BAC068
:103F8800C1F0000EC36F000EC26F000ECA6F000EA4
:103F9800C96FC00EB36FBBC0B4F0BCC0B5F0BF0EE4
:103FA800B66F9BEC1FF00001C251B925D96EC35101
:103FB800BA21DA6EDF6A12002BC02EF02CC02FF067
:103FC800EEEF1FF02AC01DF02E0E1E6E2DC01FF042
:103FD80020EC0CF02EC0F6FF2FC0F7FF0800F550BC
:103FE8000009D8A4FAEF1FF0FCEF1FF0E6EF1FF06E
:103FF800000E2B6E000E2A6E1200340E366E30C084
:1040080037F031C038F0000E3A6E000E396E000EEF
:10401800416E000E406E370E2A6E32C02BF033C050
:104028002CF0360E2D6EE0EC1FF039503024D96E8E
:104038003A503120DA6EDF6A120001C007F002C080
:1040480008F02FEF20F007C0D9FF08C0DAFF03C03F
:10405800DFFF074A082A0506D8A00606052806E154
:104068000628D8A43AEF20F03CEF20F027EF20F004
:1040780012000001A3BF43EF20F045EF20F04BEF03
:1040880020F0A2C0A2F0A3C0A3F057EF20F0A2C076
:10409800A4F0A3C0A5F0A41FA51FA44BA52BA4C0E2
:1040A800A2F0A5C0A3F012001ABE5DEF20F05FEFEA
:1040B80020F065EF20F019C019F01AC01AF071EF5E
:1040C80020F019C01BF01AC01CF01B1E1C1E1B4A36
:1040D8001C2A1BC019F01CC01AF01200FF0E0001A8
:1040E8008A258C6FFF0E8B218D6F8CC076F08DC06A
:1040F80077F0786A796A1200720ED36E0F0EC16E6D
:104108008C808B9A8B969590949A94961200016E57
:10411800ACA291EF20F093EF20F08CEF20F001C0DB
:10412800ADFF12009494BD50F00B0C09BD6E030E48
:10413800CA12CA8412009EAAA4EF20F0A6EF20F0AB
:104148009FEF20F0AE5012000000010002000300B3
:0941580004000500060064000EDD
:10416200D59EB6EC20F0F2941200BE6ACF0EBD16B8
:0A41720012000700120012001200F4
:10796800000000000000000000000000000000000F
:1079780000000000000000000000000000000000FF
:1079880000000000000000000000000000000000EF
:1079980000000000000000000000000000000000DF
:1079A80000000000000000000000000000000000CF
:1079B80000000000000000000000000000000000BF
:1079C80000000000000000000000000000000000AF
:1079D800000000000000000000000000000000009F
:1079E800000000000000000000000000000000008F
:1079F800000000000000000000000000000000007F
:107A0800000000000000000000000000000000006E
:107A1800000000000000000000000000000000005E
:107A2800000000000000000000000000000000004E
:107A3800000000000000000000000000000000003E
:107A4800000000000000000000000000000000002E
:107A58000000000101010101000001010101010014
:107A68000001010101010000000101010100000005
:107A780000000001010101010001010101010001F3
:107A880001010101000101010100000101010101E1
:107A980000000101010000000101010100000000D7
:107AA80000000001000000010000000001000000CB
:107AB80000010000000000000100000000010000BB
:107AC80000000000000100000001000000000000AC
:107AD800000100000001000000010000000100009A
:107AE800000100000000000100000000010000008B
:107AF800000000010000000100000000010000007B
:107B0800000100000000000000000000000100006B
:107B1800000000000001000000010000000000005B
:107B28000001000000010000000100000001000049
:107B3800000100000000000000000000010000003B
:107B48000000000101010101000000000100000027
:107B5800000100000000000000000000010000001B
:107B68000000000000010000000101010100000008
:107B780000010000000100000100000000010000F9
:107B880000000101000000000000000100000000EA
:107B980000000001000000000000000001000000DB
:107BA80000010000000000000000000100000000CB
:107BB80000000000000100000001000000000000BB
:107BC80000010000000101010000000000010000A8
:107BD800000000000100000000000100000000009B
:107BE800000000010000000000000000010000008B
:107BF800000100000000000000000100000000007B
:107C0800000000000001000000010000000000006A
:107C18000001000000010000010000000001000058
:107C2800000000000001000000010000000000004A
:107C3800000000010000000000000000010000003A
:107C4800000100000000000000010000000000002A
:107C5800000000000001000000010000000000001A
:107C68000001000000010000000100000001000008
:107C780000000000000100000100000000000000FA
:107C880000000001000000000000010101010100E6
:107C980000010101010100000101010101010000D1
:107CA80000000000000100000001010101010000C6
:107CB80000010000000100000001000101010101B4
:107CC80000000101010000010101010101000000A3
:107CD800000000000000000000000000000000009C
:107CE800000000000000000000000000000000008C
:107CF800000000000000000000000000000000007C
:107D0800000000000000000000000000000000006B
:107D1800000000000000000000000000000000005B
:107D2800000000000000000000000000000000004B
:107D3800000000000000000000000000000000003B
:107D4800000000000000000000000000000000002B
:107D5800000000000000000000000000000000001B
:107D6800000000000000000000000000000000000B
:107D780000000000000000000000000000000000FB
:107D880000000000000000000000000000000000EB
:107D980000000000000000000000000000000000DB
:107DA80000000000000000000000000000000000CB
:107DB80000000000000000000000000000000000BB
:107DC80000000000000000000000000000000000AB
:107DD800000000000000000000000000000000009B
:107DE800000000000000000000000000000000008B
:107DF800000000000000000000000000000000007B
:107E0800000000000000000000000000000000006A
:107E1800000000000000000000000000000000005A
:107E2800000000000000000000000000000000004A
:107E3800000000000000000000000000000000003A
:107E4800000000000000000000000000000000002A
:107E5800000000000000000000000000000000001A
:107E680000A101D000D000A101D000D000A101D014
:107E780000D000A101D000D0007102D000A101A162
:107E880001A101A101D000A101D000D0007102D050
:107E980000A101D000D0007102D000A101D000D013
:107EA80000A101D000D000A101A101A101A101A15F
:107EB80001A101A101D000D000A101D000D000A1F2
:107EC80001D000D000A101D000D0007102D000A1E3
:107ED80001A101A101A101D000A101D000D0007130
:107EE80002D000A101D000D0007102D000A101D0C1
:107EF80000D000A101D000D000A101A101A101A1E1
:107F080001A101A10141034103410341034103418F
:107F1800034103A101A1014103410341034103A11D
:107F280001A10141034103A1012605DC03160496C2
:107F3800041604DC03700370031604260596041661
:107F480004DC0316049604260516047003700370F7
:107F580003DC0316049604C805E00620067405260B
:107F6800051604260596041604DC03DC031604969D
:107F780004260516047003700300002605DC0316AA
:107F88000496041604DC0370037003160426059691
:107F9800041604DC03160496042605160470037000
:107FA800037003DC0316049604C805E00620067473
:107FB8000526051604260596041604DC03DC0316BC
:107FC800049604260516047003700300002605169F
:107FD800049604DC03160470033E03DC0300002649
:107FE8000516049604DC0316042605E0067E06FF43
:077FF800FF256400410000B9
:020000040020DA
:08000000FFFFFFFFFFFFFFFF00
:020000040030CA
:0E000000FF081B1EFF8181FF0FC00FE00F40A5
:00000001FF
