:020000040000FA
:0400000045EF00F0D8
:100018007480D8CF80F0E8CF81F0E0CF82F0FACFBB
:1000280083F0FBCF84F0E1CF85F0E2CF86F0D9CF23
:1000380087F0DACF88F0F6CF89F0F7CF8AF0F8CFDB
:100048008BF0F5CF8CF0C1EC11F08CC0F5FF8BC0B4
:10005800F8FF8AC0F7FF89C0F6FF88C0DAFF87C0BB
:10006800D9FF86C0E2FF85C0E1FF84C0FBFF83C0E3
:10007800FAFF82C0E0FF81C0E8FF80C0D8FF74901B
:10008800100024EF1AF031EC20F08DC006F38EC07A
:1000980007F38FC008F390C009F3E9C0A5F0EAC0E0
:1000A800A6F0EBC0A7F0ECC0A8F0EDC0A9F0EEC038
:1000B800AAF0EFC0ABF0F0C0ACF0E80E0001AD6FF5
:1000C800030EAE6F000EAF6F000EB06F000EB16F73
:1000D800000EB26F000EB36F000EB46F8BEC12F00F
:1000E800A5C0C1F0A6C0C2F0A7C0C3F0A8C0C4F0A4
:1000F800A9C0C5F0AAC0C6F0ABC0C7F0ACC0C8F074
:10010800C1C000F3C2C001F3C3C002F3C4C003F30B
:100118000001E451D8A493EF00F095EF00F015EF3B
:1001280001F006C38DF007C38EF008C38FF009C332
:1001380090F0E80E916F030E926F000E936F000E11
:10014800946FD0EC1EF000018DC0C1F08EC0C2F0DB
:100158008FC0C3F090C0C4F0C56BC4BFC569C5C02B
:10016800C6F0C5C0C7F0C5C0C8F0C1C0E9F0C2C07C
:10017800EAF0C3C0EBF0C4C0ECF0C5C0EDF0C6C0F7
:10018800EEF0C7C0EFF0C8C0F0F0F0BFDDEF00F050
:10019800F051EF11EE11ED11EC110DE1E00EE95DFA
:1001A800930EEA59040EEB59D8A0DDEF00F0DFEF0B
:1001B80000F0EFEF00F0E00EE96F930EEA6F040E27
:1001C800EB6F000EEC6F000EED6F000EEE6F000E81
:1001D800EF6F000EF06F010EE46FE9C0A5F0EAC002
:1001E800A6F0EBC0A7F0ECC0A8F0EDC0A9F0EEC0F7
:1001F800AAF0EFC0ABF0F0C0ACF0E80EAD6F030EA4
:10020800AE6F000EAF6F000EB06F000EB16F000E34
:10021800B26F000EB36F000EB46F8BEC12F0DCEF10
:1002280001F0010E5B26000E5C225D225E225EBE9E
:1002380029EF01F05E505D105C1009E1020E5B5C75
:10024800D8A029EF01F02BEF01F0DCEF01F0000E50
:100258005B6E000E5C6E000E5D6E000E5E6E03013E
:100268000051065D01510759025108590951800A88
:100278000001C16F03010351800A0001C159D8B0C0
:1002880048EF01F04AEF01F0DCEF01F006C38DF012
:1002980007C38EF008C38FF009C390F0FA0E916F70
:1002A800000E926F000E936F000E946FD0EC1EF04C
:1002B80000018DC0C1F08EC0C2F08FC0C3F090C0E5
:1002C800C4F0C56BC4BFC569C5C0C6F0C5C0C7F01A
:1002D800C5C0C8F0EE0E956F020E966F000E976FB0
:1002E800000E986F000E996F000E9A6F000E9B6FAC
:1002F800000E9C6FE9C08DF0EAC08EF0EBC08FF065
:10030800ECC090F0EDC091F0EEC092F0EFC093F029
:10031800F0C094F0DDEC1BF08DC0A5F08EC0A6F007
:100328008FC0A7F090C0A8F091C0A9F092C0AAF021
:1003380093C0ABF094C0ACF0E80E0001AD6F030EB3
:10034800AE6F000EAF6F000EB06F000EB16F000EF3
:10035800B26F000EB36F000EB46F8BEC12F0A5C035
:10036800C9F0A6C0CAF0A7C0CBF0A8C0CCF0A9C0FD
:10037800CDF0AAC0CEF0ABC0CFF0ACC0D0F0000139
:10038800C151C925E96FC251CA21EA6FC351CB21B6
:10039800EB6FC451CC21EC6FC551CD21ED6FC65127
:1003A800CE21EE6FC751CF21EF6FC851D021F06F2A
:1003B800E9C0A5F0EAC0A6F0EBC0A7F0ECC0A8F031
:1003C800EDC0A9F0EEC0AAF0EFC0ABF0F0C0ACF001
:1003D800E80E0001AD6F030EAE6F000EAF6F000E9A
:1003E800B06F000EB16F000EB26F000EB36F000E4B
:1003F800B46F8BEC12F0A5C0C1F0A6C0C2F0A7C0C4
:10040800C3F0A8C0C4F0A9C0C5F0AAC0C6F0ABC06C
:10041800C7F0ACC0C8F0C1C000F3C2C001F3C3C08C
:1004280002F3C4C003F303010051065D0A6F0151D2
:1004380007590B6F025108590C6F035109590D6F79
:100448000DBF2BEF02F029EF02F033EF02F0000EA0
:100458000A6F000E0B6F000E0C6F000E0D6F000E72
:10046800056F010E046F0DBF45EF02F00D510C1121
:100478000B1109E10A0E0A5DD8A045EF02F047EF1B
:1004880002F04BEF02F0000E056F020E046F0DBF75
:1004980059EF02F00D510C110B1109E1140E0A5D10
:1004A800D8A059EF02F05BEF02F05FEF02F0000E08
:1004B800056F030E046F0DBF6DEF02F00D510C11A7
:1004C8000B1109E1280E0A5DD8A06DEF02F06FEF5D
:1004D80002F073EF02F0000E056F040E046F0DBFFB
:1004E80081EF02F00D510C110B1109E13C0E0A5D70
:1004F800D8A081EF02F083EF02F087EF02F0000E40
:10050800056F050E046F0DBF95EF02F00D510C112C
:100518000B1109E1500E0A5DD8A095EF02F097EF94
:1005280002F09BEF02F0000E056F060E046F0DBF80
:10053800A9EF02F00D510C110B1109E1780E0A5DBB
:10054800D8A0A9EF02F0ABEF02F0AFEF02F0000E77
:10055800056F070E046F0DBFBDEF02F00D510C11B2
:100568000B1109E1960E0A5DD8A0BDEF02F0BFEFAE
:1005780002F0C3EF02F0000E056F080E046F04C30B
:10058800BFF005C3C0F01200000E03010F6F000E8C
:100598000E6F000E116F000E106F0EC3D3F00FC355
:1005A800D4F00001D890D337D437D890D337D43784
:1005B800D890D337D437000ED325D56F010ED42168
:1005C800D66F030110510001D525D96E03011151D1
:1005D8000001D621DA6EDF6A0301104B112B11BF1F
:1005E800FFEF02F0115109E1080E105DD8A0FFEFEE
:1005F80002F001EF03F0D1EF02F00E4B0F2B0FBF0B
:100608000FEF03F00F5109E1100E0E5DD8A00FEFA8
:1006180003F011EF03F0CDEF02F0010E0101076FB7
:1006280007C105F105C103F103C100F1010E0D6F0A
:100638000DC10BF10BC108F1010E176F17C114F1B1
:1006480014C112F112C111F111C110F10001D2BF90
:1006580039EF03F0D25107E1040ED15DD8B037EF7E
:1006680003F039EF03F056EF03F0010E01012F6F8D
:100678002FC12EF12EC12DF12DC128F1010E376F9A
:1006880037C135F135C130F1010E3F6F3FC13EF141
:100698003EC13DF13DC13AF13AC139F139C138F1B4
:1006A800B2EF03F0D2BF62EF03F0D25109E1040EBA
:1006B800D15DD8A062EF03F064EF03F095EF03F08B
:1006C800D2BF72EF03F0D25107E1070ED15DD8B067
:1006D80070EF03F072EF03F095EF03F0010E0101E4
:1006E8002E6F2EC12DF12DC12CF12CC12AF12AC15A
:1006F80028F1010E376F37C135F135C134F134C1F6
:1007080032F132C131F131C130F1010E3E6F3EC1DB
:100718003DF13DC13CF13CC13AF13AC138F1B2EF8B
:1007280003F0010E01012F6F2FC12EF12EC12DF103
:100738002DC12AF12AC128F1010E366F36C132F1D6
:1007480032C131F131C130F1010E3F6F3FC13EF18D
:100758003EC13DF13DC13AF13AC138F1000E030105
:10076800176F010E166F5EEF04F0030117BFC8EF95
:1007780003F0175107E1060E165DD8B0C6EF03F077
:10078800C8EF03F013EF04F0050E16191711D8B4CB
:10079800D0EF03F0D2EF03F0F5EF03F0D890163561
:1007A800D96E1735DA6E4F0ED926010EDA22010EF0
:1007B800DF6ED8901635E16E1735E26E470EE126EA
:1007C800010EE222DFCFE7FFD8901635D96E173534
:1007D800DA6E3F0ED926010EDA22E7CFDFFF5CEF93
:1007E80004F0000E136F000E126F480E1225D96E1A
:1007F800010E1321DA6E010EDF6E124B132B13BF9D
:100808000FEF04F0135109E1080E125DD8A00FEFA5
:1008180004F011EF04F0F9EF03F05CEF04F00A0EB6
:1008280016191711D8B41BEF04F01DEF04F040EFB0
:1008380004F0D8901635D96E1735DA6E6D0ED926B4
:10084800010EDA22010EDF6ED8901635E16E1735EB
:10085800E26E650EE126010EE222DFCFE7FFD890B7
:100868001635D96E1735DA6E5D0ED926010EDA22E5
:10087800E7CFDFFF5CEF04F0000E156F000E146F7A
:10088800700E1425D96E010E1521DA6E010EDF6E79
:10089800144B152B15BF5AEF04F0155109E1080E3A
:1008A800145DD8A05AEF04F05CEF04F044EF04F0B4
:1008B800164B172B16510001D15DD251800AD36F08
:1008C80003011751800A0001D359D8B06EEF04F024
:1008D80070EF04F0B9EF03F00BEC14F01200000114
:1008E800956F0001E805D8B47CEF04F07EEF04F0C2
:1008F8001CEF06F0000EA06F000E9F6F010E9F25E3
:100908009D6F000EA0219E6F9EBF94EF04F09E5134
:1009180009E1040E9D5DD8A094EF04F096EF04F071
:1009280098EF04F006EF05F09FC08DF0A0C08EF0A0
:10093800D8908D378E37D8908D378E37800E8D258D
:100948008F6F010E8E21906F9D518F25D96E9E510C
:100958009021DA6EDF50966F9DC08DF09EC08EF0AC
:10096800D8908D378E37D8908D378E37800E8D255D
:100978008F6F010E8E21906F9F518F25D96EA051D8
:100988009021DA6E9FC091F0A0C092F0D890913774
:100998009237D89091379237800E9125936F010E38
:1009A8009221946F9D519325E16E9E519421E26EA0
:1009B800DFCFE7FF9DC08DF09EC08EF0D8908D37B9
:1009C8008E37D8908D378E37800E8D258F6F010E1C
:1009D8008E21906F9F518F25D96EA0519021DA6E8C
:1009E80096C0DFFF9D4B9E2B9EBF04EF05F09E51E6
:1009F80009E1040E9D5DD8A004EF05F006EF05F0AF
:100A080098EF04F09F4BA02BA0BF14EF05F0A05166
:100A180009E1030E9F5DD8A014EF05F016EF05F06D
:100A280082EF04F0000EA26F000EA16F000E9A6F05
:100A3800000E996FE851D8B424EF05F026EF05F0C1
:100A48002CEF05F0000E9C6F020E9B6FFDEF05F07A
:100A5800000E9C6F030E9B6FFDEF05F09505D8A463
:100A680038EF05F03AEF05F09AEF05F0A1C08DF0E8
:100A7800A2C08EF0D8908D378E37D8908D378E37AC
:100A8800800E8D258F6F010E8E21906F99518F25C5
:100A9800D96E9A519021DA6EDF50976FA1C08DF010
:100AA800A2C08EF0D8908D378E37D8908D378E377C
:100AB800800E8D258F6F010E8E21906F9B518F2593
:100AC800D96E9C519021DA6EA1C091F0A2C092F02B
:100AD800D89091379237D89091379237800E9125D8
:100AE800936F010E9221946F99519325E16E9A515B
:100AF8009421E26EDFCFE7FFA1C08DF0A2C08EF097
:100B0800D8908D378E37D8908D378E37800E8D25BB
:100B18008F6F010E8E21906F9B518F25D96E9C513E
:100B28009021DA6E97C0DFFFF8EF05F099C08DF0DD
:100B38009AC08EF0D8908D378E37D8908D378E37F3
:100B4800800E8D258F6F010E8E21906FA1518F25FC
:100B5800D96EA2519021DA6EDF50986F9BC08DF04C
:100B68009CC08EF0D8908D378E37D8908D378E37C1
:100B7800800E8D258F6F010E8E21906FA1518F25CC
:100B8800D96EA2519021DA6E99C091F09AC092F074
:100B9800D89091379237D89091379237800E912517
:100BA800936F010E9221946FA1519325E16EA2518A
:100BB8009421E26EDFCFE7FF9BC08DF09CC08EF0E2
:100BC800D8908D378E37D8908D378E37800E8D25FB
:100BD8008F6F010E8E21906FA1518F25D96EA25172
:100BE8009021DA6E98C0DFFF994B9A2B9B07D8A00B
:100BF8009C079B51995D9A51800A8D6F9C51800A80
:100C08008D59D8A00AEF06F00CEF06F032EF05F088
:100C1800A14BA22BA2BF1AEF06F0A25109E1040EC4
:100C2800A15DD8A01AEF06F01CEF06F01AEF05F048
:100C38001200700ED3120F0EC16E938093829384AC
:100C48009386938886EC21F05EEC1EF051EC21F03F
:100C5800D08EF28EF28C800E00019B6F250E9C6F59
:100C6800000E9D6F000E9E6F000E9F6FECEC10F053
:100C7800580E0001E16F430EE26F5A0EDF6F380E17
:100C8800E06F010E03011D6F000E0001926F03015A
:100C98001D5156EC20F003011D2B080E1D6557EF62
:100CA80006F059EF06F048EF06F0000E00018E6FCF
:100CB800010E8D6F78EC21F00B0E0001D86F260E17
:100CC800D76F5D0EE82EFED7D72FFCD7D82FFAD7CF
:100CD80000D0000E03011C6F000E1B6F000E0001F8
:100CE800DE6F000EDD6FFA0E8D6F7F0E8E6F14ECC7
:100CF8001DF00001DD51DE11D8A485EF06F087EF65
:100D080006F0EBEF06F0000E03011A6F000E196FE4
:100D18001BC3A5F01CC3A6F0CFEC17F081B897EF62
:100D280006F099EF06F0A9EF06F0FC0E00018D6FB2
:100D38007F0E8E6F14EC1DF0000E0001DE6F010EA9
:100D4800DD6F7CEC1CF0BAEF06F00301194B1A2B8F
:100D58001ABFB8EF06F01A5109E1030E195DD8A0C1
:100D6800B8EF06F0BAEF06F08CEF06F00001DD519F
:100D7800DE11D8A4C2EF06F0C4EF06F071EF07F059
:100D880003011B4B1C2B1CBFD3EF06F01C5109E1C0
:100D9800500E1B5DD8A0D3EF06F0D5EF06F0E2EFBA
:100DA80006F0000E1C6F000E1B6FFA0E00018D6F0F
:100DB8007F0E8E6F14EC1DF071EF07F0F80E000136
:100DC8008D6F7F0E8E6F14EC1DF071EF07F0DD054F
:100DD800DE11D8A4F2EF06F0F4EF06F02EEF07F0DC
:100DE8000301186B15EF07F012EC0CF01DEC0DF079
:100DF8000BEC14F01A0E0001D76FF80EE82EFED790
:100E0800D72FFCD700000001DD05DE11D8B40FEFA5
:100E180007F011EF07F013EF07F020EF07F00301D9
:100E2800182B0001F1510301185DD8A01EEF07F03F
:100E380020EF07F0F8EF06F00001DD05DE11D8A479
:100E480028EF07F02AEF07F071EF07F0A4EC1FF086
:100E580071EF07F0020EDD19DE11D8A436EF07F0A6
:100E680038EF07F071EF07F047EC00F0BFC0D1F0A2
:100E7800C0C0D2F0C8EC02F01A0E0001D76FF80E0D
:100E8800E82EFED7D72FFCD7000081B84EEF07F029
:100E980050EF07F064EF07F081B855EF07F057EF10
:100EA80007F050EF07F07CEC1CF0000E0001DE6F3D
:100EB800000EDD6FF80E8D6F7F0E8E6F14EC1DF037
:100EC800060E0001D86F130ED76FAD0EE82EFED7B1
:100ED800D72FFCD7D82FFAD700D081B876EF07F0F4
:100EE80079EF07F0010E7AEF07F0000E0001E36FCB
:100EF8007DEF06F045EF00F0000E0301016F000ED4
:100F0800006F000E0A6F020E096F010E026F000ECD
:100F1800046F000E036F09C3CEF00AC3CFF00001BF
:100F2800D890CE37CF37D890CE37CF37D890CE3766
:100F3800CF37200ECE25D06F020ECF21D16F0301FF
:100F480003510001D025D96E030104510001D121BC
:100F5800DA6EDF50D8A4B3EF07F0B5EF07F0B9EFBA
:100F680007F00301026BCAEF07F00301034B042BE0
:100F780004BFC8EF07F0045109E1080E035DD8A0CB
:100F8800C8EF07F0CAEF07F08FEF07F00251D8B4A7
:100F9800D0EF07F0D2EF07F087EF08F009C305F3A9
:100FA8000AC306F32EEF08F0000E03010C6F000EC3
:100FB8000B6F05C3CEF006C3CFF00001D890CE3733
:100FC800CF37D890CE37CF37D890CE37CF37180E07
:100FD800CE25D06F020ECF21D16F03010B51000136
:100FE800D025D96E03010C510001D121DA6E05C359
:100FF800D2F006C3D3F0D890D237D337D890D237AF
:10100800D337D890D237D337200ED225D46F020EDB
:10101800D321D56F03010B510001D425E16E0301E3
:101028000C510001D521E26EDFCFE7FF03010B4B26
:101038000C2B0CBF29EF08F00C5109E1080E0B5DD1
:10104800D8A029EF08F02BEF08F0DDEF07F005072F
:10105800D8A00607FF0E05250001CE6FFF0E03017D
:1010680006210001CF6FCFBF45EF08F0CF5107E150
:10107800020ECE5DD8B043EF08F045EF08F0D8EF88
:1010880007F0000E0301086F000E076F300E0725EA
:10109800D96E020E0821DA6EDF6A074B082B08BFEB
:1010A8005FEF08F0085109E1080E075DD8A05FEF6F
:1010B80008F061EF08F04AEF08F0654A662AE7ECA5
:1010C8001DF00301004B012B65C09FF066C0A0F026
:1010D800000E0001A26F0C0EA16FD7EC1AF00001F0
:1010E8009F51A011D8A47BEF08F07DEF08F087EF9F
:1010F80008F0040EF16583EF08F085EF08F087EF3C
:1011080008F0020EF15F0301094B0A2B0ABF96EFA4
:1011180008F00A5109E1100E095DD8A096EF08F011
:1011280098EF08F089EF07F0900E0001BC6F010EF0
:10113800BD6FF30EBE6F7F0EBF6F00C3C0F001C35B
:10114800C1F09DEC20F0900E00018D6F010E8E6FA6
:1011580014EC1DF012000001E56B73BEBDEF08F042
:10116800735009E1070E725CD8A0BDEF08F0BFEF1D
:1011780008F03CEF09F0000EAA6F000EA96FD89096
:10118800A935D96EAA35DA6EA00ED926010EDA2253
:10119800A9C0DEFFAAC0DDFFA94BAA2BAABFDEEFBC
:1011A80008F0AA5109E1070EA95DD8A0DEEF08F002
:1011B800E0EF08F0C3EF08F0000EAC6F060EAB6F5F
:1011C80098EC1EF099C09FF09AC0A0F0010E0001A3
:1011D800AB25A16F000EAC21A26FD7EC1AF09FC00F
:1011E800A7F0A0C0A8F0D8900001AB35D96EAC35F7
:1011F800DA6EA00ED926010EDA22DECFA5F0DDCFF9
:10120800A6F0D890A735D96EA835DA6EA00ED926E3
:10121800010EDA22D890AB35E16EAC35E26EA00E45
:10122800E126010EE222DECFE6FFDDCFE5FFD89012
:10123800A735D96EA835DA6EA00ED926010EDA22A6
:10124800A5C0DEFFA6C0DDFFAB07D8A0AC07ACBFCA
:1012580038EF09F0AC5106E1AB05D8B036EF09F02C
:1012680038EF09F0E4EF08F0000E736E000E726EAE
:10127800D8907234D96E7334DA6EA00ED926010E66
:10128800DA22DECFADF0DDCFAEF0724A732AAD516F
:10129800AE11D8A452EF09F054EF09F05EEF09F04F
:1012A800EE0E8D6F010E8E6F7FEC1AF00001E86B69
:1012B800CFEF09F0AD05AE11D8A465EF09F067EFDF
:1012C80009F072EF09F0DE0E8D6F010E8E6F7FEC64
:1012D8001AF0010E0001E86FCFEF09F0020EAD1908
:1012E800AE11D8A47AEF09F07CEF09F087EF09F086
:1012F800CE0E8D6F010E8E6F7FEC1AF0020E00017C
:10130800E86FCFEF09F0030EAD19AE11D8A48FEF37
:1013180009F091EF09F09CEF09F0BE0E8D6F010EF8
:101328008E6F7FEC1AF0030E0001E86FCFEF09F023
:10133800040EAD19AE11D8A4A4EF09F0A6EF09F078
:10134800B1EF09F0AE0E8D6F010E8E6F7FEC1AF0C3
:10135800040E0001E86FCFEF09F0050EAD19AE11CC
:10136800D8A4B9EF09F0BBEF09F0C6EF09F0F00E09
:101378008D6F020E8E6F7FEC1AF0050E0001E86F7C
:10138800CFEF09F0E00E8D6F020E8E6F7FEC1AF032
:10139800060E0001E86F000EDC6F020EDB6F000E18
:1013A800DA6F020ED96F12000001E56B73BEE6EF2B
:1013B80009F0735009E1070E725CD8A0E6EF09F056
:1013C800E8EF09F063EF0AF0000E1E6E000E1D6EC6
:1013D800D8901D34D96E1E34DA6EA00ED926010EAF
:1013E800DA221DC0DEFF1EC0DDFF1D4A1E2A1EBEFA
:1013F80007EF0AF01E5009E1070E1D5CD8A007EFA1
:101408000AF009EF0AF0ECEF09F0000E206E060E64
:101418001F6E06EC1FF00DC013F00EC014F0010E85
:101428001F24156E000E2020166E86EC1BF013C0CC
:101438001BF014C01CF0D8901F34D96E2034DA6E1B
:10144800A00ED926010EDA22DECF19F0DDCF1AF070
:10145800D8901B34D96E1C34DA6EA00ED926010E32
:10146800DA22D8901F34E16E2034E26EA00EE12615
:10147800010EE222DECFE6FFDDCFE5FFD8901B3478
:10148800D96E1C34DA6EA00ED926010EDA2219C0E4
:10149800DEFF1AC0DDFF1F06D8A0200620BE5FEFC2
:1014A8000AF0205006E11F04D8B05DEF0AF05FEFA4
:1014B8000AF00DEF0AF0000E736E000E726ED890EF
:1014C8007234D96E7334DA6EA00ED926010EDA2280
:1014D800DECF21F0DDCF22F0724A732A215022108C
:1014E800D8A479EF0AF07BEF0AF085EF0AF0EE0E48
:1014F800016E010E026E2FEC1BF00001E86BF6EF97
:101508000AF021042210D8A48CEF0AF08EEF0AF01A
:1015180099EF0AF0DE0E016E010E026E2FEC1BF041
:10152800010E0001E86FF6EF0AF0020E21182210F2
:10153800D8A4A1EF0AF0A3EF0AF0AEEF0AF0CE0E9E
:10154800016E010E026E2FEC1BF0020E0001E86F17
:10155800F6EF0AF0030E21182210D8A4B6EF0AF00D
:10156800B8EF0AF0C3EF0AF0BE0E016E010E026E6C
:101578002FEC1BF0030E0001E86FF6EF0AF0040EE3
:1015880021182210D8A4CBEF0AF0CDEF0AF0D8EF3B
:101598000AF0AE0E016E010E026E2FEC1BF0040E67
:1015A8000001E86FF6EF0AF0050E21182210D8A402
:1015B800E0EF0AF0E2EF0AF0EDEF0AF0F00E016E4C
:1015C800020E026E2FEC1BF0050E0001E86FF6EF1D
:1015D8000AF0E00E016E020E026E2FEC1BF0060EF2
:1015E8000001E86F000EDC6F020EDB6F000EDA6F91
:1015F800020ED96F1200000E4B6E000E4A6E000EDE
:10160800546E020E536E010E4C6E000E4E6E000E9E
:101618004D6E53C042F054C043F0D8904236433622
:10162800D89042364336D89042364336200E42246C
:10163800446E020E4320456E4D504424D96E4E50E0
:101648004520DA6EDF50D8A42CEF0BF02EEF0BF00C
:1016580031EF0BF04C6A41EF0BF04D4A4E2A4EBE6B
:101668003FEF0BF04E5009E1080E4D5CD8A03FEF5C
:101678000BF041EF0BF00DEF0BF04C50D8B447EFE7
:101688000BF049EF0BF0EDEF0BF053C04FF054C0E7
:1016980050F09AEF0BF0000E566E000E556E4FC0CC
:1016A80042F050C043F0D89042364336D890423684
:1016B8004336D89042364336180E4224446E020E02
:1016C8004320456E55504424D96E56504520DA6E55
:1016D8004FC046F050C047F0D89046364736D890AD
:1016E80046364736D89046364736200E4624486E4A
:1016F800020E4720496E55504824E16E5650492045
:10170800E26EDFCFE7FF554A562A56BE95EF0BF03B
:10171800565009E1080E555CD8A095EF0BF097EFED
:101728000BF053EF0BF04F06D8A05006FF0E4F24D6
:10173800426EFF0E5020436E43BEAEEF0BF0435097
:1017480007E1020E425CD8B0ACEF0BF0AEEF0BF045
:101758004FEF0BF0000E526E000E516E300E5124FA
:10176800D96E020E5220DA6EDF6A514A522A52BEF0
:10177800C7EF0BF0525009E1080E515CD8A0C7EF33
:101788000BF0C9EF0BF0B2EF0BF0654A662A23ECB9
:101798001EF04A4A4B2A65C013F066C014F0000ECA
:1017A800166E0C0E156E86EC1BF013501410D8A490
:1017B800E0EF0BF0E2EF0BF0EDEF0BF0040E0001A1
:1017C800F165E9EF0BF0EBEF0BF0EDEF0BF0020E2C
:1017D800F15F534A542A54BEFBEF0BF0545009E111
:1017E800100E535CD8A0FBEF0BF0FDEF0BF007EFEA
:1017F8000BF0900E306E010E316EF30E326E7F0ECE
:10180800336E4AC034F04BC035F0E0EC20F0900E57
:10181800016E010E026EA2EC1DF0120081A017EFFE
:101828000CF019EF0CF041EF0CF06B50D8A41FEF3F
:101838000CF021EF0CF041EF0CF0340E0001B16F09
:10184800F10EE82EFED7B12FFCD700D081A02FEFE4
:101858000CF031EF0CF041EF0CF0010E73EC04F0DA
:10186800BFEC14F00009D8B43CEF0CF03EEF0CF0DC
:1018780041EF0CF0000E73EC04F081B046EF0CF071
:1018880049EF0CF0010E4AEF0CF0000E6B6E81A2CE
:1018980050EF0CF052EF0CF071EF0CF06A50D8A436
:1018A80058EF0CF05AEF0CF071EF0CF081A25FEFDB
:1018B8000CF061EF0CF071EF0CF0000E73EC04F01B
:1018C800BFEC14F00009D8B46CEF0CF06EEF0CF01C
:1018D80071EF0CF0010E73EC04F081B276EF0CF0AE
:1018E80079EF0CF0010E7AEF0CF0000E6A6E81A40D
:1018F80080EF0CF082EF0CF0ABEF0CF06950D8A43D
:1019080088EF0CF08AEF0CF0ABEF0CF0340E00010E
:10191800B16FF10EE82EFED7B12FFCD700D081A40D
:1019280098EF0CF09AEF0CF0ABEF0CF00001DB4BEA
:10193800DC2BBFEC14F00009D8B4A5EF0CF0A7EF2E
:101948000CF0ABEF0CF00001DB07D8A0DC0781B48A
:10195800B0EF0CF0B3EF0CF0010EB4EF0CF0000E8A
:10196800696E81A6BAEF0CF0BCEF0CF0E5EF0CF055
:101978006850D8A4C2EF0CF0C4EF0CF0E5EF0CF0FF
:10198800340E0001B16FF10EE82EFED7B12FFCD74F
:1019980000D081A6D2EF0CF0D4EF0CF0E5EF0CF0FC
:1019A8000001DB07D8A0DC07BFEC14F00009D8B4AD
:1019B800E0EF0CF0E2EF0CF0E5EF0CF00001DB4B90
:1019C800DC2B81B6EAEF0CF0EDEF0CF0010EEEEF38
:1019D8000CF0000E686E81A8F4EF0CF0F6EF0CF036
:1019E80011EF0DF00001E351D8A4FDEF0CF0FFEF6B
:1019F8000CF011EF0DF0340E0001B16FF10EE82E6E
:101A0800FED7B12FFCD700D081A80DEF0DF00FEF56
:101A18000DF011EF0DF071EC1FF081B816EF0DF01D
:101A280019EF0DF0010E1AEF0DF0000E0001E36F33
:101A38001200000E00019A6F000E996F000E9C6F45
:101A4800000E9B6F99C08DF09AC08EF0D8908D379C
:101A58008E37D8908D378E37D8908D378E37200EA9
:101A68008D258F6F020E8E21906F9B518F25D96E19
:101A78009C519021DA6E99C091F09AC092F0D8905A
:101A880091379237D89091379237D89091379237CB
:101A9800000E9125936F010E9221946F9B5193250F
:101AA800E16E9C519421E26EDFCFE7FF9B4B9C2BAC
:101AB8009CBF68EF0DF09C5109E1080E9B5DD8A012
:101AC80068EF0DF06AEF0DF026EF0DF0994B9A2BA9
:101AD8009ABF78EF0DF09A5109E1100E995DD8A0E0
:101AE80078EF0DF07AEF0DF022EF0DF0000E9E6FFB
:101AF800000E9D6F000EA06F000E9F6F9DC08DF0B1
:101B08009EC08EF0D8908D378E37D8908D378E370F
:101B1800800E8D258F6F010E8E21906F9F518F251E
:101B2800D96EA0519021DA6EDF50D8B49EEF0DF037
:101B3800A0EF0DF0F1EF0DF09D51D925956F9E5155
:101B4800DA21966F9F51DB25976FA051DC21986FA2
:101B580096BFB1EF0DF0B3EF0DF0F1EF0DF096BFBA
:101B6800C1EF0DF0965107E1100E955DD8B0BFEFAB
:101B78000DF0C1EF0DF0F1EF0DF098BFC6EF0DF0CD
:101B8800C8EF0DF0F1EF0DF098BFD6EF0DF09851BA
:101B980007E1080E975DD8B0D4EF0DF0D6EF0DF041
:101BA800F1EF0DF095C08DF096C08EF0D8908D377E
:101BB8008E37D8908D378E37D8908D378E37000E68
:101BC8008D258F6F010E8E21906F97518F25D96EBD
:101BD80098519021DA6E010EDF6E9F4BA02BA0BFAB
:101BE800FFEF0DF0A05109E1040E9F5DD8A0FFEFB3
:101BF8000DF001EF0EF082EF0DF09D4B9E2B9EBF76
:101C08000FEF0EF09E5109E1040E9D5DD8A00FEF75
:101C18000EF011EF0EF07EEF0DF012000001AA5148
:101C2800D96EDA6ADECFF6FFDDCFF7FF0800F55090
:101C3800250AD8A422EF0EF024EF0EF0F5EF0EF0EF
:101C4800AA51D96EDA6ADE2A000EDD22000E606E15
:101C5800000E5F6E5FC067F061686268AA51D96E56
:101C6800DA6ADECFAFF0DDCFB0F0AFC0F6FFB0C0BC
:101C7800F7FF0800F550640AD8B445EF0EF047EFB7
:101C88000EF055EF0EF0AFC0F6FFB0C0F7FF08003A
:101C9800F550690AD8A453EF0EF055EF0EF0ECEFAB
:101CA8000EF0AB51D96EDA6A020EDF26DF5CD96E10
:101CB800DA6ADECFB1F0DECFB2F0010EAF25AC6F3D
:101CC800000EB021AD6FAA51D96EDA6AACC0DEFF42
:101CD800ADC0DDFF200EB56FB2BF75EF0EF078EF27
:101CE8000EF0010E79EF0EF0000EAE6FB507000E84
:101CF800B525D96EDA6A020EDA22B1C09FF0B2C0F9
:101D0800A0F0000EA26F0A0EA16FD7EC1AF09FC0C8
:101D1800A5F0A0C0A6F01CEC21F00001A551300FE1
:101D2800DF6EB1C08DF0B2C08EF0000E906F0A0E5B
:101D38008F6FA6EC18F08DC0B1F08EC0B2F0000124
:101D4800B151B211D8B4ABEF0EF0ADEF0EF0B5EF64
:101D58000EF0B551D8A4B3EF0EF0B5EF0EF07AEF50
:101D68000EF0B551D8B4BBEF0EF0BDEF0EF0E1EFB9
:101D78000EF0AE51D8B4C3EF0EF0C5EF0EF0E1EFA0
:101D88000EF0B507000EB525D96EDA6A020EDA2212
:101D98002D0EDF6EE1EF0EF0000EB525D96EDA6A72
:101DA800020EDA22DF50AC6FAC518D6F8E6BA9C07A
:101DB8008FF069EC19F00001B52B200EB519D8A4E5
:101DC800E8EF0EF0EAEF0EF0D0EF0EF006EF0FF0AE
:101DD8000001AA51D96EDA6ADE2A000EDD2206EF6A
:101DE8000FF0AA51D96EDA6ADECFF6FFDDCFF7FF22
:101DF8000800F5508D6F8E6BA9C08FF069EC19F053
:101E0800ECEF0EF01200000E0E6E000E0D6E000EBE
:101E1800106E000E0F6E0DC001F00EC002F0D890CB
:101E280001360236D89001360236D890013602368D
:101E3800200E0124036E020E0220046E0F500324AC
:101E4800D96E10500420DA6E0DC005F00EC006F0F1
:101E5800D89005360636D89005360636D890053619
:101E68000636000E0524076E010E0620086E0F5078
:101E78000724E16E10500820E26EDFCFE7FF0F4A1B
:101E8800102A10BE51EF0FF0105009E1080E0F5C38
:101E9800D8A051EF0FF053EF0FF00FEF0FF00D4AEE
:101EA8000E2A0EBE61EF0FF00E5009E1100E0D5C08
:101EB800D8A061EF0FF063EF0FF00BEF0FF0000EFB
:101EC800126E000E116E000E146E000E136E11C00D
:101ED80001F012C002F0D89001360236D8900136CF
:101EE8000236800E0124036E010E0220046E135088
:101EF8000324D96E14500420DA6EDF50D8B487EF6B
:101F08000FF089EF0FF0DBEF0FF011500001D9252A
:101F1800096E1250DA210A6E1350DB250B6E14502D
:101F2800DC210C6E0ABE9BEF0FF09DEF0FF0DBEF8C
:101F38000FF00ABEABEF0FF00A5007E1100E095C74
:101F4800D8B0A9EF0FF0ABEF0FF0DBEF0FF00CBE3E
:101F5800B0EF0FF0B2EF0FF0DBEF0FF00CBEC0EFF9
:101F68000FF00C5007E1080E0B5CD8B0BEEF0FF075
:101F7800C0EF0FF0DBEF0FF009C001F00AC002F06C
:101F8800D89001360236D89001360236D8900136FC
:101F98000236000E0124036E010E0220046E0B505F
:101FA8000324D96E0C500420DA6E010EDF6E134A3A
:101FB800142A14BEE9EF0FF0145009E1040E135C63
:101FC800D8A0E9EF0FF0EBEF0FF06BEF0FF0114A2D
:101FD800122A12BEF9EF0FF0125009E1040E115C3B
:101FE800D8A0F9EF0FF0FBEF0FF067EF0FF012003A
:101FF8001E50D96EDA6ADECFF6FFDDCFF7FF080094
:10200800F550250AD8A40BEF10F00DEF10F0DAEF19
:1020180010F01E50D96EDA6ADE2A000EDD22000E9C
:10202800606E000E5F6E5FC067F0616862681E5088
:10203800D96EDA6ADECF23F0DDCF24F023C0F6FFB5
:1020480024C0F7FF0800F550640AD8B42EEF10F04A
:1020580030EF10F03EEF10F023C0F6FF24C0F7FF7A
:102068000800F550690AD8A43CEF10F03EEF10F0D4
:10207800D2EF10F01F50D96EDA6A020EDF26DF5C4D
:10208800D96EDA6ADECF25F0DECF26F0010E2324E2
:10209800206E000E2420216E1E50D96EDA6A20C0F0
:1020A800DEFF21C0DDFF200E296E26BE5EEF10F098
:1020B80061EF10F0010E62EF10F0000E226E29069B
:1020C800000E2924D96EDA6A020EDA2225C013F02E
:1020D80026C014F0000E166E0A0E156E86EC1BF064
:1020E80013C019F014C01AF037EC21F01950300F52
:1020F800DF6E25C001F026C002F0000E046E0A0E45
:10210800036E08EC19F001C025F002C026F0255036
:102118002610D8B492EF10F094EF10F09CEF10F066
:102128002950D8A49AEF10F09CEF10F063EF10F04C
:102138002950D8B4A2EF10F0A4EF10F0C7EF10F0B8
:102148002250D8B4AAEF10F0ACEF10F0C7EF10F09F
:102158002906000E2924D96EDA6A020EDA222D0E1B
:10216800DF6EC7EF10F0000E2924D96EDA6A020E6E
:10217800DA22DF50206E2050016E026A1DC003F083
:10218800C7EC19F0292A200E2918D8A4CEEF10F090
:10219800D0EF10F0B7EF10F0EBEF10F01E50D96E43
:1021A800DA6ADE2A000EDD22EBEF10F01E50D96E3F
:1021B800DA6ADECFF6FFDDCFF7FF0800F550016ED3
:1021C800026A1DC003F0C7EC19F0D2EF10F012003C
:1021D800949C948EAC98B886000E00018D6F120EF8
:1021E8008E6F7A0E8F6F000E906F9BC091F09CC01F
:1021F80092F09DC093F09EC094F049EC17F08DC00A
:10220800A1F08EC0A2F08FC0A3F090C0A4F000018E
:102218009EBF1FEF11F09E519D1109E1610E9B5D5C
:10222800090E9C59D8B01BEF11F01FEF11F0A06BED
:10223800A02B21EF11F00001A06BA047A047AC50E4
:10224800A019FB0BA019AC6EACB82DEF11F02FEF55
:1022580011F059EF11F0B8B634EF11F036EF11F074
:1022680059EF11F0ACB43BEF11F03DEF11F059EF1D
:1022780011F0A1C08DF0A2C08EF0A3C08FF0A4C051
:1022880090F0400E916F000E926F000E936F000E4B
:10229800946F49EC17F08DC0A1F08EC0A2F08FC0EA
:1022A800A3F090C0A4F0B1EF11F0ACB85EEF11F05C
:1022B80060EF11F097EF11F0ACB465EF11F068EF33
:1022C80011F0010E69EF11F0000EA06FB8B66FEFB4
:1022D80011F072EF11F0010E73EF11F0000EA01B58
:1022E800D8B479EF11F07BEF11F097EF11F0A1C09E
:1022F8008DF0A2C08EF0A3C08FF0A4C090F0100E95
:10230800916F000E926F000E936F000E946F49EC60
:1023180017F08DC0A1F08EC0A2F08FC0A3F090C0BE
:10232800A4F0B1EF11F0A1C08DF0A2C08EF0A3C04F
:102338008FF0A4C090F0040E916F000E926F000E03
:10234800936F000E946F49EC17F08DC0A1F08EC00A
:10235800A2F08FC0A3F090C0A4F0A2C0B0FFA1C0AB
:10236800AFFFAB8EAC8AAB889E9A9D8A00019FB165
:1023780002D09F9A01D09F8A12009EAAC6EF11F040
:10238800C8EF11F089EF12F0ABA2CDEF11F0CFEF4B
:1023980011F0D2EF11F0AB980000AB889CEC21F063
:1023A8005A6EABB4DAEF11F0DCEF11F086EF12F0F1
:1023B80071EF12F06D50D8A4E4EF11F0E6EF11F0D0
:1023C800E8EF11F084EF12F0080E91EC21F0200EE6
:1023D80091EC21F0080E91EC21F06D06A00E6D2411
:1023E800D96EDA6A020EDA22DF6A84EF12F00A0E78
:1023F8005A18D8A402EF12F004EF12F017EF12F0F7
:102408006D50D8A40AEF12F00CEF12F017EF12F08B
:102418000D0E6C18D8A413EF12F015EF12F017EF89
:1024280012F084EF12F0A00E6D24D96EDA6A020E53
:10243800DA22DF6A0001E151E211D8B426EF12F086
:1024480028EF12F03BEF12F0A00E016E020E026EA2
:102458006DC003F002D83BEF12F00500FA6EE151AF
:10246800FD6EE251FE6EF850FF6EFA501200000E3B
:102478006D6EA00E6D24D96EDA6A020EDA22DF6A5A
:1024880084EF12F00001DF51E011D8B44EEF12F0E2
:1024980050EF12F05EEF12F002D85EEF12F0050076
:1024A800FA6EDF51FD6EE051FE6EF850FF6EFA5085
:1024B8005A5012003F0E6D6064EF12F066EF12F092
:1024C80084EF12F0A00E6D24D96EDA6A020EDA22B9
:1024D8005AC0DFFF6D2A84EF12F05A500A0AD8B4A6
:1024E800FBEF11F0070AD8B4FBEF11F0720AD8B469
:1024F800DEEF11F0800AD8B484EF12F046EF12F044
:102508005AC06CF0010E8AEF12F0000E12000001A2
:10251800B66BB4BF94EF12F092EF12F0A6EF12F080
:10252800B41FB31FB21FB11FB01FAF1FAE1FAD6DD9
:10253800000EAE23AF23B023B123B223B323B423B9
:10254800010EB66FACBFADEF12F0ABEF12F0BFEFFC
:1025580012F0AC1FAB1FAA1FA91FA81FA71FA61FF9
:10256800A56D000EA623A723A823A923AA23AB237E
:10257800AC23010EB61B20EEB7F0070EDE6AE806A4
:10258800FDE2AD51AE11AF11B011B111B211B311DD
:10259800B411D8B4D2EF12F0D4EF12F026EF13F042
:1025A800010EB56FE2EF12F0D890AD37AE37AF3706
:1025B800B037B137B237B337B437B52BB4AFE7EF6D
:1025C80012F0E9EF12F0D8EF12F0D890B737B83719
:1025D800B937BA37BB37BC37BD37BE37AD51A55D44
:1025E800AE51A659AF51A759B051A859B151A959DF
:1025F800B251AA59B351AB59B451AC59D8A007EF4D
:1026080013F009EF13F01AEF13F0AD51A55FAE51B7
:10261800A65BAF51A75BB051A85BB151A95BB251A2
:10262800AA5BB351AB5BB451AC5BB781D890B43300
:10263800B333B233B133B033AF33AE33AD33B52F79
:10264800E9EF12F0B651D8B42CEF13F02EEF13F0D7
:102658003EEF13F0BE1FBD1FBC1FBB1FBA1FB91F23
:10266800B81FB76D000EB823B923BA23BB23BC2308
:10267800BD23BE23B7C0A5F0B8C0A6F0B9C0A7F067
:10268800BAC0A8F0BBC0A9F0BCC0AAF0BDC0ABF0EE
:10269800BEC0ACF01200000E1D6E000E1E6E000EC5
:1026A8001F6E000E1A6E000E1B6E000E1C6E03C00D
:1026B8001AF004C01BF001C01DF002C01EF0FF0E8E
:1026C8001D14076EFF0E1E14086E010E1F14096EEE
:1026D800FF0E1A140A6EFF0E1B140B6E010E1C144B
:1026E8000C6E07500A5C08500B5809500C58D8B0AB
:1026F80080EF13F082EF13F0E5EF13F0FF0E1A14DA
:10270800076EFF0E1B14086E010E1C14096E07508D
:102718000A6E08500B6E09500C6E0D6A05500A249B
:102728000E6E06500B200F6E000E0C20106E000E61
:102738000D20116EFF0E1D14126EFF0E1E14136E67
:10274800010E1F14146E1250156E1350166E14508D
:10275800176E186A0E50155C0F50165810501758FF
:1027680011501858D8B0BBEF13F0BDEF13F0E5EFD8
:1027780013F005501A2606501B2205501D26065038
:102788001E221A06D8A01B061AC0D9FF1BC0DAFFE2
:10279800DF50196E1D06D8A01E061DC0D9FF1EC029
:1027A800DAFF19C0DFFF0506D8A006060550061097
:1027B800D8A4E1EF13F0E3EF13F0C5EF13F00AEF3D
:1027C80014F005500610D8B4ECEF13F0EEEF13F048
:1027D8000AEF14F01AC0D9FF1BC0DAFFDF50196ED8
:1027E8001A4A1B2A1DC0D9FF1EC0DAFF19C0DFFF15
:1027F8001D4A1E2A0506D8A0060605500610D8A4AC
:1028080008EF14F00AEF14F0EEEF13F01200000EC8
:1028180000019D6F000E9C6F966B000E996F000E65
:10282800986F9CC092F09DC093F0D89092379337E0
:10283800D89092379337D89092379337400E922595
:10284800946F010E9321956F98519425D96E9951E3
:102858009521DA6EDF50D8B434EF14F036EF14F067
:1028680046EF14F098510708926F010E936F922B60
:1028780040EF14F0D8909337922F3EEF14F00001F8
:1028880093519613984B992B99BF54EF14F0995183
:1028980009E1080E985DD8A054EF14F056EF14F033
:1028A80015EF14F0976B000E9B6F000E9A6F9CC08B
:1028B80092F09DC093F0D89092379337D890923782
:1028C8009337D89092379337000E9225946F010E64
:1028D8009321956F9A519425D96E9B519521DA6E63
:1028E800DF50D8B47AEF14F07CEF14F08CEF14F0CA
:1028F8009A510708926F010E936F922B86EF14F08E
:10290800D8909337922F84EF14F0000193519713C6
:102918009A4B9B2B9BBF9AEF14F09B5109E1080E31
:102928009A5DD8A09AEF14F09CEF14F05BEF14F0C6
:102938008C909C2903EC20F00001975103EC20F0C7
:1029480000019C2903EC20F00001965103EC20F0D3
:102958008C8000019C4B9D2B9DBFBCEF14F09D51BA
:1029680009E1080E9C5DD8A0BCEF14F0BEEF14F08E
:1029780010EF14F01200000E0001966F000E956F14
:10298800000E986F000E976F95C08DF096C08EF070
:10299800D8908D378E37D8908D378E37800E8D250D
:1029A8008F6F010E8E21906F97518F25D96E985198
:1029B8009021DA6EDF50D8B4E4EF14F0E6EF14F0AB
:1029C80049EF15F09751DB25916F9851DC21926FF3
:1029D8009551D925936F9651DA21946F92BFF7EFED
:1029E80014F0F9EF14F023EF15F092BF07EF15F08C
:1029F800925107E1080E915DD8B005EF15F007EF89
:102A080015F023EF15F094BF13EF15F0945109E179
:102A1800020E935DD8A013EF15F015EF15F023EF14
:102A280015F094BF21EF15F0945109E1100E935D54
:102A3800D8A021EF15F023EF15F026EF15F0010EC1
:102A48006AEF15F093C08DF094C08EF0D8908D3752
:102A58008E37D8908D378E37D8908D378E37200E99
:102A68008D258F6F020E8E21906F91518F25D96E13
:102A780092519021DA6EDF50D8B445EF15F047EF48
:102A880015F049EF15F023EF15F0974B982B98BFE9
:102A980057EF15F0985109E1040E975DD8A057EF4C
:102AA80015F059EF15F0C8EF14F0954B962B96BF1B
:102AB80067EF15F0965109E1040E955DD8A067EF10
:102AC80015F069EF15F0C4EF14F0000E1200000EB7
:102AD8000A6E000E096E000E0C6E000E0B6E09C019
:102AE80001F00AC002F0D89001360236D8900136BB
:102AF8000236800E0124036E010E0220046E0B5074
:102B08000324D96E0C500420DA6EDF50D8B48FEF4E
:102B180015F091EF15F0F5EF15F00B500001DB25DE
:102B2800056E0C50DC21066E0950D925076E0A5037
:102B3800DA21086E06BEA3EF15F0A5EF15F0CFEF6A
:102B480015F006BEB3EF15F0065007E1080E055C58
:102B5800D8B0B1EF15F0B3EF15F0CFEF15F008BE10
:102B6800BFEF15F0085009E1020E075CD8A0BFEFCF
:102B780015F0C1EF15F0CFEF15F008BECDEF15F049
:102B8800085009E1100E075CD8A0CDEF15F0CFEF83
:102B980015F0D2EF15F0010E16EF16F007C001F090
:102BA80008C002F0D89001360236D89001360236B5
:102BB800D89001360236200E0124036E020E022040
:102BC800046E05500324D96E06500420DA6EDF50D7
:102BD800D8B4F1EF15F0F3EF15F0F5EF15F0CFEFEE
:102BE80015F00B4A0C2A0CBE03EF16F00C5009E145
:102BF800040E0B5CD8A003EF16F005EF16F073EF88
:102C080015F0094A0A2A0ABE13EF16F00A5009E11C
:102C1800040E095CD8A013EF16F015EF16F06FEF4D
:102C280015F0000E1200000E0001966F000E956F51
:102C3800000E986F000E976F95C08DF096C08EF0BD
:102C4800D8908D378E37D8908D378E37800E8D255A
:102C58008F6F010E8E21906F97518F25D96E9851E5
:102C68009021DA6EDF50D8B43CEF16F03EEF16F044
:102C78008FEF16F09751DB25916F9851DC21926FF9
:102C88009551D925936F9651DA21946F92BF4FEFE2
:102C980016F051EF16F08FEF16F092BF5FEF16F0B7
:102CA800925107E1080E915DD8B05DEF16F05FEF25
:102CB80016F08FEF16F094BF64EF16F066EF16F07B
:102CC8008FEF16F094BF74EF16F0945107E1100ED1
:102CD800935DD8B072EF16F074EF16F08FEF16F020
:102CE80093C08DF094C08EF0D8908D378E37D890E1
:102CF8008D378E37D8908D378E37200E8D258F6F74
:102D0800020E8E21906F91518F25D96E925190218C
:102D1800DA6E010EDF6E974B982B98BF9DEF16F079
:102D2800985109E1040E975DD8A09DEF16F09FEF2A
:102D380016F020EF16F0954B962B96BFADEF16F0D8
:102D4800965109E1040E955DD8A0ADEF16F0AFEFEE
:102D580016F01CEF16F01200000E0A6E000E096E37
:102D6800000E0C6E000E0B6E09C001F00AC002F0D6
:102D7800D89001360236D89001360236800E0124EA
:102D8800036E010E0220046E0B500324D96E0C5002
:102D98000420DA6EDF50D8B4D4EF16F0D6EF16F070
:102DA80028EF17F00B500001DB25056E0C50DC21D5
:102DB800066E0950D925076E0A50DA21086E06BE3C
:102DC800E8EF16F0EAEF16F028EF17F006BEF8EF76
:102DD80016F0065007E1080E055CD8B0F6EF16F0BD
:102DE800F8EF16F028EF17F008BEFDEF16F0FFEF2A
:102DF80016F028EF17F008BE0DEF17F0085007E19E
:102E0800100E075CD8B00BEF17F00DEF17F028EF96
:102E180017F007C001F008C002F0D890013602365A
:102E2800D89001360236D89001360236200E012499
:102E3800036E020E0220046E05500324D96E06505C
:102E48000420DA6E010EDF6E0B4A0C2A0CBE36EF38
:102E580017F00C5009E1040E0B5CD8A036EF17F000
:102E680038EF17F0B8EF16F0094A0A2A0ABE46EFFB
:102E780017F00A5009E1040E095CD8A046EF17F0D4
:102E880048EF17F0B4EF16F012000001966B94BFEC
:102E980052EF17F050EF17F05CEF17F0941F931FE5
:102EA800921F916D000E922393239423010E966F27
:102EB80090BF63EF17F061EF17F06DEF17F0901FF9
:102EC8008F1F8E1F8D6D000E8E238F239023010E72
:102ED800961B000E976F000E986F000E996F000EEC
:102EE8009A6F9151921193119411D8B47EEF17F003
:102EF80080EF17F0B6EF17F0010E956F8AEF17F015
:102F0800D8909137923793379437952B94AF8FEFAA
:102F180017F091EF17F084EF17F0D890973798379C
:102F280099379A3791518D5D92518E5993518F5996
:102F380094519059D8A0A3EF17F0A5EF17F0AEEF72
:102F480017F091518D5F92518E5B93518F5B945125
:102F5800905B9781D8909433933392339133952F24
:102F680091EF17F09651D8B4BCEF17F0BEEF17F0F9
:102F7800C6EF17F09A1F991F981F976D000E982398
:102F880099239A2397C08DF098C08EF099C08FF03E
:102F98009AC090F01200000E0001B26F000EB16FDF
:102FA800000EB46F000EB36FB351A5259F6FB451D7
:102FB800A621A06F000EA26F500EA16FD7EC1AF0D9
:102FC800500E0001B103F3CFA7F0F4CFA8F0B2037D
:102FD800F350A827F30EA725A96F7A0EA821AA6F88
:102FE8009F51A925AB6FA051AA21AC6FABC0F6FFCA
:102FF800ACC0F7FFB1C0ADF0B2C0AEF0D890AD37FD
:10300800AE37D890AD37AE37D890AD37AE37000E63
:10301800AD25AF6F010EAE21B06FB351AF25D96E9C
:10302800B451B021DA6E0800F5CFDFFFB34BB42BF3
:10303800B4BF28EF18F0B45109E1080EB35DD8A069
:1030480028EF18F02AEF18F0D8EF17F0B14BB22B91
:10305800B2BF38EF18F0B25109E1100EB15DD8A037
:1030680038EF18F03AEF18F0D4EF17F00BEC14F033
:10307800120000019D6F9DC0E8F07BEF18F0EE0E86
:103088008D6F010E8E6F7FEC1AF0A5EF18F0DE0E33
:103098008D6F010E8E6F7FEC1AF0A5EF18F0CE0E33
:1030A8008D6F010E8E6F7FEC1AF0A5EF18F0BE0E33
:1030B8008D6F010E8E6F7FEC1AF0A5EF18F0AE0E33
:1030C8008D6F010E8E6F7FEC1AF0A5EF18F0F00EE1
:1030D8008D6F020E8E6F7FEC1AF0A5EF18F0E00EE0
:1030E8008D6F020E8E6F7FEC1AF0A5EF18F00001BD
:1030F8009D519B6F9C6B9C51000AD8B486EF18F0C9
:10310800A5EF18F09B51000AD8B443EF18F0010A54
:10311800D8B44BEF18F0030AD8B453EF18F0010AEB
:10312800D8B45BEF18F0070AD8B463EF18F0010AB7
:10313800D8B46BEF18F0030AD8B473EF18F0A5EF02
:1031480018F012000001926B90BFAFEF18F0ADEFCE
:1031580018F0B5EF18F08F6D901FD8B0902B010EB6
:10316800926F8EBFBCEF18F0BAEF18F0C2EF18F0EC
:103178008D6D8E1FD8B08E2B010E921B000E946F92
:10318800000E936F8F519011D8B4CDEF18F0CFEF98
:1031980018F0F7EF18F0010E916FD7EF18F0D890EC
:1031A8008F379037912B90AFDCEF18F0DEEF18F0E7
:1031B800D3EF18F0D890933794378F518D5D905195
:1031C8008E59D8A0EAEF18F0ECEF18F0F1EF18F0EC
:1031D8008F518D5F90518E5B9381D89090338F3350
:1031E800912FDEEF18F09251D8B4FDEF18F0FFEFF1
:1031F80018F003EF19F0936D941FD8B0942B93C077
:103208008DF094C08EF01200066A04BE10EF19F01B
:103218000EEF19F016EF19F0036C041ED8B0042A4B
:10322800010E066E02BE1DEF19F01BEF19F023EF19
:1032380019F0016C021ED8B0022A010E061A000EFF
:10324800086E000E076E03500410D8B42EEF19F064
:1032580030EF19F058EF19F0010E056E38EF19F03C
:10326800D89003360436052A04AE3DEF19F03FEF37
:1032780019F034EF19F0D890073608360350015C7E
:1032880004500258D8A04BEF19F04DEF19F052EF47
:1032980019F00350015E0450025A0780D890043296
:1032A8000332052E3FEF19F00650D8B45EEF19F03F
:1032B80060EF19F064EF19F0076C081ED8B0082AFF
:1032C80007C001F008C002F0120000018F51D8B405
:1032D80070EF19F072EF19F07AEF19F08F51D8A446
:1032E80078EF19F07AEF19F07FEF19F08D51ABEC08
:1032F80021F0C6EF19F08F51D96EDA6A090ED92676
:10330800DE50DE10D8B48BEF19F08DEF19F0A6EF70
:1033180019F08F51D96EDA6A090ED9268F51E16EEC
:10332800E26A020EE126DE50E65CE650800A946FFF
:10333800DE50800A9459D8B0A4EF19F0A6EF19F01E
:10334800C6EF19F08F51D96EDA6A020ED926DECF90
:1033580090F0DDCF91F08F51D96EDA6ADECF92F01E
:10336800DDCF93F090519225D96E91519321DA6E69
:103378008DC0DFFF8F51D96EDA6A020ED926DE2A98
:10338800000EDD2212000350D8B4CDEF19F0CFEFB4
:1033980019F0D7EF19F00350D8A4D5EF19F0D7EFEB
:1033A80019F0DCEF19F00150ADEC21F023EF1AF021
:1033B8000350D96EDA6A090ED926DE50DE10D8B469
:1033C800E8EF19F0EAEF19F003EF1AF00350D96E9D
:1033D800DA6A090ED9260350E16EE26A020EE12686
:1033E800DE50E65CE650800A086EDE50800A085817
:1033F800D8B001EF1AF003EF1AF023EF1AF00350D8
:10340800D96EDA6A020ED926DECF04F0DDCF05F0D8
:103418000350D96EDA6ADECF06F0DDCF07F004502C
:103428000624D96E05500720DA6E01C0DFFF03506D
:10343800D96EDA6A020ED926DE2A000EDD221200C3
:10344800D00EF66E420EF76E000EF86E02EEE0F049
:1034580010EE20F00900F5CFEEFFE550E150FAE15B
:10346800A80EF66E3F0EF76E000EF86E01EEA0F095
:1034780010EE5EF00900F5CFEEFFE550E150FAE1FD
:103488004A0EF66E430EF76E000EF86E00EEE9F087
:1034980010EE09F00900F5CFEEFFE550E150FAE132
:1034A800530EF66E430EF76E000EF86E0900F5CF58
:1034B80072F00900F5CF73F002EE00F0E00EEE6A4C
:1034C800E806FDE101EE00F0A00EEE6AE806FDE177
:1034D80000EED9F0100EEE6AE806FDE100EE5BF0B2
:1034E800170EEE6AE806FDE174907492000EF86E0D
:1034F80000011DEF06F0000E0001986F000E976F97
:10350800000E9A6F000E996F97C08FF098C090F0D8
:10351800D8908F379037D8908F3790378F518D2527
:10352800916F90518E21926F99519125D96E9A5130
:103538009221DA6E97C093F098C094F0D8909337A0
:103548009437D89093379437800E9325956F010E52
:103558009421966F99519525E16E9A519621E26EC4
:10356800DFCFE7FF994B9A2B9ABFC4EF1AF09A5115
:1035780009E1040E995DD8A0C4EF1AF0C6EF1AF05D
:1035880088EF1AF0974B982B98BFD4EF1AF0985100
:1035980009E1040E975DD8A0D4EF1AF0D6EF1AF01F
:1035A80084EF1AF012000001A46BA0BFE0EF1AF03C
:1035B800DEEF1AF0E6EF1AF09F6DA01FD8B0A02B2F
:1035C800010EA46FA2BFEDEF1AF0EBEF1AF0F1EFC6
:1035D8001AF0A16DA21FD8B0A22BA151A211D8B484
:1035E800F8EF1AF0FAEF1AF01EEF1BF0010EA36FB6
:1035F80002EF1BF0D890A137A237A32BA2AF07EF99
:103608001BF009EF1BF0FEEF1AF0A1519F5DA251CC
:10361800A059D8A012EF1BF014EF1BF018EF1BF005
:10362800A1519F5FA251A05BD890A233A133A32FD1
:1036380009EF1BF0A451D8B424EF1BF026EF1BF0C0
:103648002AEF1BF09F6DA01FD8B0A02B9FC09FF042
:10365800A0C0A0F01200000E0C6E000E0B6E000E43
:103668000E6E000E0D6E0BC003F00CC004F0D89067
:1036780003360436D8900336043603500124056E09
:1036880004500220066E0D500524D96E0E500620F7
:10369800DA6E0BC007F00CC008F0D8900736083671
:1036A800D89007360836800E0724096E010E0820C8
:1036B8000A6E0D500924E16E0E500A20E26EDFCF2B
:1036C800E7FF0D4A0E2A0EBE73EF1BF00E5009E1FC
:1036D800040E0D5CD8A073EF1BF075EF1BF037EFED
:1036E8001BF00B4A0C2A0CBE83EF1BF00C5009E1AF
:1036F800040E0B5CD8A083EF1BF085EF1BF033EFB3
:103708001BF01200186A14BE8EEF1BF08CEF1BF032
:1037180094EF1BF0136C141ED8B0142A010E186E07
:1037280016BE9BEF1BF099EF1BF09FEF1BF0156C7B
:10373800161ED8B0162A15501610D8B4A6EF1BF0CE
:10374800A8EF1BF0CCEF1BF0010E176EB0EF1BF0CB
:10375800D89015361636172A16AEB5EF1BF0B7EF08
:103768001BF0ACEF1BF01550135C16501458D8A082
:10377800C0EF1BF0C2EF1BF0C6EF1BF01550135E35
:103788001650145AD89016321532172EB7EF1BF070
:103798001850D8B4D2EF1BF0D4EF1BF0D8EF1BF0C1
:1037A800136C141ED8B0142A13C013F014C014F0EC
:1037B800120020EE9DF0070EDE6AE806FDE2000129
:1037C8008DA1E9EF1BF0EBEF1BF0FBEF1BF0955120
:1037D8009D2796519E2397519F239851A023995135
:1037E800A1239A51A2239B51A3239C51A423D8908F
:1037F800953796379737983799379A379B379C3745
:10380800D890943393339233913390338F338E33EC
:103818008D338D518E118F11901191119211931139
:103828009411D8A41AEF1CF01CEF1CF0E3EF1BF066
:103838009DC08DF09EC08EF09FC08FF0A0C090F00C
:10384800A1C091F0A2C092F0A3C093F0A4C094F0DC
:103858001200596E0001DD05DE11D8A436EF1CF008
:1038680038EF1CF07BEF1CF064EF1CF0000EDE6FED
:10387800020EDD6FC8EC1CF007EC0FF07BEF1CF0BC
:10388800000E586E010E576E5CEC1DF07BEF1CF0BD
:10389800000E586E020E576E5CEC1DF07BEF1CF0AC
:1038A800000E586E030E576E5CEC1DF07BEF1CF09B
:1038B800000E586E040E576E5CEC1DF07BEF1CF08A
:1038C8005950310AD8B444EF1CF0030AD8B44CEF6D
:1038D8001CF0010AD8B454EF1CF0070AD8B45CEF06
:1038E8001CF0750AD8B43AEF1CF07BEF1CF01200FC
:1038F800000E666E000E656E100E0001F16F000E70
:10390800986F000E976F000E9A6F000E996F97C010
:1039180093F098C094F0D89093379437D890933711
:103928009437D89093379437200E9325956F020ECD
:103938009421966F99519525D96E9A519621DA6EF0
:10394800DF6A994B9A2B9ABFB3EF1CF09A5109E1A1
:10395800080E995DD8A0B3EF1CF0B5EF1CF08BEF03
:103968001CF0974B982B98BFC3EF1CF0985109E1B6
:10397800100E975DD8A0C3EF1CF0C5EF1CF087EFC1
:103988001CF0E7EC1DF01200000E666E000E656E6E
:10399800100E0001F16F000E0C6E000E0B6E000E83
:1039A8000E6E000E0D6E0BC007F00CC008F0D8901C
:1039B80007360836D89007360836D89007360836BE
:1039C800200E0724096E020E08200A6E0D500924E5
:1039D800D96E0E500A20DA6EDF6A0D4A0E2A0EBE24
:1039E800FFEF1CF00E5009E1080E0D5CD8A0FFEFA8
:1039F8001CF001EF1DF0D7EF1CF00B4A0C2A0CBE8F
:103A08000FEF1DF00C5009E1100E0B5CD8A00FEF62
:103A18001DF011EF1DF0D3EF1CF023EC1EF0120087
:103A2800000E0001926F000E916F3DEF1DF0ACA2E9
:103A380020EF1DF022EF1DF01BEF1DF0000191514A
:103A48008D258F6F92518E21906F8FC0F6FF90C099
:103A5800F7FFF86A050EF76403D00800F55005D0A3
:103A6800F6CFE1FFF7CFE2FFE750AD6E0001914BD3
:103A7800922B91518D258F6F92518E21906F8FC00F
:103A8800F6FF90C0F7FFF86A050EF76403D0080048
:103A9800F55005D0F6CFE1FFF7CFE2FFE750000978
:103AA800D8A459EF1DF05BEF1DF01BEF1DF01200BD
:103AB800200E016E020E026E280E036E020E046EB8
:103AC800000E066E700E056E4FEC13F0980E016E28
:103AD800020E026E000E046E010E036E000E066EDC
:103AE800080E056E00EC21F0980E6324D96E020EC4
:103AF8006420DA6EDF6A6BEC15F00009D8B487EF42
:103B08001DF089EF1DF0A1EF1DF00001D907D8A025
:103B1800DA07B0EC16F0FFEC0AF0D8EC09F06BEC21
:103B280015F00009D8B49BEF1DF09DEF1DF0A1EF33
:103B38001DF0C8EC1CF0D8EC09F01200000E066E5F
:103B4800000E056EC8EF1DF0ACA2ADEF1DF0AFEF93
:103B58001DF0A8EF1DF005500124036E0650022049
:103B6800046E03C0F6FF04C0F7FFF86A050EF76499
:103B780003D00800F55005D0F6CFE1FFF7CFE2FFFC
:103B8800E750AD6E054A062A05500124036E06501B
:103B98000220046E03C0F6FF04C0F7FFF86A050EA2
:103BA800F76403D00800F55005D0F6CFE1FFF7CF52
:103BB800E2FFE7500009D8A4E4EF1DF0E6EF1DF09E
:103BC800A8EF1DF0120065C08DF066C08EF0000EE3
:103BD8000001906F000E8F6F000E926F800E916F34
:103BE80091518D5D92518E59D8A0FDEF1DF0FFEFD8
:103BF8001DF00DEF1EF091518D5F92518E5B200EDE
:103C08008F25D96E020E9021DA6E010EDF6E14EF49
:103C18001EF0200E8F25D96E020E9021DA6EDF6A13
:103C28008F4B902BD8909233913391519211D8A405
:103C380020EF1EF022EF1EF0F4EF1DF0120065C019
:103C480001F066C002F0000E046E000E036E000E56
:103C5800066E800E056E0550015C06500258D8A00D
:103C680038EF1EF03AEF1EF048EF1EF00550015EE7
:103C78000650025A200E0324D96E020E0420DA6E72
:103C8800010EDF6E4FEF1EF0200E0324D96E020ED8
:103C98000420DA6EDF6A034A042AD8900632053215
:103CA80005500610D8A45BEF1EF05DEF1EF02FEF55
:103CB8001EF01200000E0001926F0F0E56EC20F05D
:103CC800070E0001926F0B0E56EC20F0000E00015B
:103CD800926F090E56EC20F0020E0001926F0A0E48
:103CE80056EC20F0010E0001926F0C0E56EC20F0FD
:103CF800000E0001976F010E966F000E926F96519D
:103D080056EC20F00001964B972B97BF95EF1EF0CD
:103D1800975109E1090E965DD8A095EF1EF097EF2F
:103D28001EF081EF1EF012006EC08DF06FC08EF095
:103D380070C08FF071C090F02D0E0001916F7F0E52
:103D4800926F950E936F4C0E946FD0EC1EF0010E8F
:103D580000018D256E6E000E8E216F6E000E8F2174
:103D6800706E000E9021716E6EC09BF06FC09CF05B
:103D780070C09DF071C09EF0120EC8EF1EF0D89072
:103D88009E339D339C339B33E82EC3EF1EF09BC0BC
:103D980099F09CC09AF01200000E0001956F000E79
:103DA800966F000E976F000E986F8DA1DEEF1EF0D4
:103DB800E0EF1EF0E8EF1EF09151952792519623FF
:103DC8009351972394519823D890913792379337EA
:103DD8009437D89090338F338E338D338D518E1125
:103DE8008F119011D8A4FBEF1EF0FDEF1EF0D9EF54
:103DF8001EF095C08DF096C08EF097C08FF098C0D9
:103E080090F012006EC001F06FC002F070C003F0B5
:103E180071C004F02D0E056E7F0E066E950E076EAE
:103E28004C0E086E3CEC1FF0010E01246E6E000E65
:103E380002206F6E000E0320706E000E0420716E5B
:103E48006EC00FF06FC010F070C011F071C012F0AA
:103E5800120E34EF1FF0D8901232113210320F3296
:103E6800E82E2FEF1FF00FC00DF010C00EF012005B
:103E7800000E096E000E0A6E000E0B6E000E0C6E20
:103E880001A049EF1FF04BEF1FF053EF1FF0055053
:103E9800092606500A2207500B2208500C22D890F7
:103EA8000536063607360836D89004320332023211
:103EB80001320150021003100410D8A466EF1FF05D
:103EC80068EF1FF044EF1FF009C001F00AC002F0CC
:103ED8000BC003F00CC004F012000001E551D8B487
:103EE80078EF1FF07AEF1FF07CEF1FF0A3EF1FF0C1
:103EF800010EE56FE8C0B0F0E651D8A486EF1FF0D8
:103F080088EF1FF093EF1FF0B0C0E7F0010EE66FE7
:103F1800AFEC08F0010E0001E56FA3EF1FF0E7C05A
:103F2800AFF0B0C0E7F0AF513DEC18F0000E000163
:103F3800DC6F020EDB6F000EDA6F020ED96F120013
:103F48000001D94BDA2BBFEC14F00009D8B4AFEF5D
:103F58001FF0B1EF1FF0D3EF1FF00001D907D8A071
:103F6800DA0717EC16F080EC07F0AFEC08F0BFECBE
:103F780014F00009D8B4C3EF1FF0C5EF1FF0D3EF5A
:103F88001FF0000E0001DE6F020EDD6F1DEC0DF05C
:103F9800F60E00018D6F7F0E8E6F14EC1DF012006F
:103FA80000000100020003000400050006000101F2
:103FB80000000001010000000000000000000001F6
:103FC80001000101000000000000000000000001E5
:103FD80000000101010000000000000000000001D5
:103FE80001000001010000000000000000000000C6
:103FF80000000101010100000000000000000001B4
:104008008F6F000E0001916F070E906F8B9690C016
:104018008DF08FC08EF08D2B14EF20F0D8908E335A
:104028008D2F12EF20F0010E00018E178E3B8E4768
:104038008B508E19DF0B8E198B6E8B86000000005B
:104048008B9600019007D8A0910791BF30EF20F020
:104058002EEF20F00AEF20F01200C282C2B237EF32
:1040680020F039EF20F032EF20F0C350C4CF91F0A8
:104078000001926B91C092F0916B9113000E921314
:1040880091C093F092C094F0000E94BFFF0E956F0C
:10409800966F93C08DF094C08EF095C08FF096C047
:1040A80090F012000001936F8C90000E0001956F44
:1040B800000E946F935103EC20F00001925103EC31
:1040C80020F00001944B952B95BF74EF20F095518B
:1040D80009E1020E945DD8A074EF20F076EF20F08D
:1040E8005EEF20F08C80000000001200B7C0BAF02C
:1040F800B8C0BBF089EF20F0B6C0A9F0BA0E000135
:10410800AA6FB9C0ABF012EC0EF0BAC0F6FFBBC094
:10411800F7FF0800F5500009D8A495EF20F097EFB5
:1041280020F080EF20F0000E0001B76F000EB66F90
:104138001200C00E0001C26FBCC0C3F0BDC0C4F005
:10414800000EC66F000EC56F000ECD6F000ECC6F4F
:10415800C30EB66FBEC0B7F0BFC0B8F0C20EB96F1D
:104168007AEC20F00001C551BC25D96EC651BD219D
:10417800DA6EDF6A12002BC02EF02CC02FF0CDEFC4
:1041880020F02AC01DF02E0E1E6E2DC01FF0FCEC74
:104198000FF02EC0F6FF2FC0F7FF0800F5500009FA
:1041A800D8A4D9EF20F0DBEF20F0C5EF20F0000E07
:1041B8002B6E000E2A6E1200340E366E30C037F0A9
:1041C80031C038F0000E3A6E000E396E000E416EA6
:1041D800000E406E370E2A6E32C02BF033C02CF022
:1041E800360E2D6EBFEC20F039503024D96E3A507F
:1041F8003120DA6EDF6A120001C007F002C008F051
:104208000EEF21F007C0D9FF08C0DAFF03C0DFFFB7
:10421800074A082A0506D8A00606052806E1062842
:10422800D8A419EF21F01BEF21F006EF21F01200BE
:104238000001A6BF22EF21F024EF21F02AEF21F0A0
:10424800A5C0A5F0A6C0A6F036EF21F0A5C0A7F03E
:10425800A6C0A8F0A71FA81FA74BA82BA7C0A5F00A
:10426800A8C0A6F012001ABE3CEF21F03EEF21F0E4
:1042780044EF21F019C019F01AC01AF050EF21F0DC
:1042880019C01BF01AC01CF01B1E1C1E1B4A1C2A3E
:104298001BC019F01CC01AF012009280C198C19A74
:1042A800C150F00B0E09C16EC30EC216C050F80BF8
:1042B8000109C06EC050C70B2009C06EC08EC280F5
:1042C8009D9C9E9C9F8C1200000001000101010032
:1042D80000000000000000000100000001010100D2
:1042E8000000000000000000FF0E00018D258F6F08
:1042F800FF0E8E21906F8FC06EF090C06FF0706AC5
:10430800716A1200720ED36E0F0EC16E8C808B9A7A
:104318008B969590949A94961200016EACA297EFA2
:1043280021F099EF21F092EF21F001C0ADFF1200CA
:104338009EAAA1EF21F0A3EF21F09CEF21F0AE504F
:0D4348001200C0450000000000000E07003C
:064356001200120012002B
:107AF2000000000000000000000000000000000084
:107B02000000000000000000000000000000000073
:107B12000000000000000000000000000000000063
:107B22000000000000000000000000000000000053
:107B32000000000000000000000000000000000043
:107B42000000000000000000000000000000000033
:107B52000000000000000000000000000000000023
:107B62000000000000000000000000000000000013
:107B72000000000000000000000000000000000003
:107B820000000000000000000000000000000000F3
:107B920000000000000000000000000000000000E3
:107BA20000000000000000000000000000000000D3
:107BB20000000000000000000000000000000000C3
:107BC20000000000000000000000000000000000B3
:107BD20000000000000000000000000000000000A3
:107BE2000000000101010101000001010101010089
:107BF200000101010101000000010101010000007A
:107C02000000000101010101000101010101000167
:107C12000101010100010101010000010101010155
:107C2200000001010100000001010101000000004B
:107C3200000000010000000100000000010000003F
:107C4200000100000000000001000000000100002F
:107C52000000000000010000000100000000000020
:107C6200000100000001000000010000000100000E
:107C720000010000000000010000000001000000FF
:107C820000000001000000010000000001000000EF
:107C920000010000000000000000000000010000E0
:107CA20000000000000100000001000000000000D0
:107CB20000010000000100000001000000010000BE
:107CC20000010000000000000000000001000000B0
:107CD200000000010101010100000000010000009C
:107CE2000001000000000000000000000100000090
:107CF200000000000001000000010101010000007D
:107D0200000100000001000001000000000100006D
:107D1200000001010000000000000001000000005E
:107D2200000000010000000000000000010000004F
:107D3200000100000000000000000001000000003F
:107D4200000000000001000000010000000000002F
:107D5200000100000001010100000000000100001C
:107D6200000000000100000000000100000000000F
:107D720000000001000000000000000001000000FF
:107D820000010000000000000000010000000000EF
:107D920000000000000100000001000000000000DF
:107DA20000010000000100000100000000010000CD
:107DB20000000000000100000001000000000000BF
:107DC20000000001000000000000000001000000AF
:107DD200000100000000000000010000000000009F
:107DE200000000000001000000010000000000008F
:107DF200000100000001000000010000000100007D
:107E0200000000000001000001000000000000006E
:107E1200000000010000000000000101010101005A
:107E22000001010101010000010101010101000045
:107E3200000000000001000000010101010100003A
:107E42000001000000010000000100010101010128
:107E52000000010101000001010101010100000017
:107E62000000000000000000000000000000000010
:107E72000000000000000000000000000000000000
:107E820000000000000000000000000000000000F0
:107E920000000000000000000000000000000000E0
:107EA20000000000000000000000000000000000D0
:107EB20000000000000000000000000000000000C0
:107EC20000000000000000000000000000000000B0
:107ED20000000000000000000000000000000000A0
:107EE2000000000000000000000000000000000090
:107EF2000000000000000000000000000000000080
:107F0200000000000000000000000000000000006F
:107F1200000000000000000000000000000000005F
:107F2200000000000000000000000000000000004F
:107F3200000000000000000000000000000000003F
:107F4200000000000000000000000000000000002F
:107F5200000000000000000000000000000000001F
:107F6200000000000000000000000000000000000F
:107F720000000000000000000000000000000000FF
:107F820000000000000000000000000000000000EF
:107F920000000000000000000000000000000000DF
:107FA20000000000000000000000000000000000CF
:107FB20000000000000000000000000000000000BF
:107FC20000000000000000000000000000000000AF
:107FD200000000000000000000000000000000009F
:107FE200000000000000000000000000000000008F
:0D7FF2000025640041004D005200530000C6
:020000040020DA
:08000000FFFFFFFFFFFFFFFF00
:020000040030CA
:0E000000FF081B1EFF8181FF0FC00FE00F40A5
:00000001FF
